:020000040800F2
:10000000005000209D9C01084D9D01082DA5000871
:100010004D9D01084D9D01084D9D01080000000007
:100020000000000000000000000000004D9D0108DD
:100030004D9D0108000000004D9D0108A1660008CB
:100040004D9D01084D9D01084D9D01084D9D0108E4
:100050004D9D01084D9D01084D9D01087136000818
:100060004D9D01084D9D01084D9D01084D9D0108C4
:100070004D9D01084D9D0108C56900084D9D010871
:100080004D9D01084D9D01084D9D01084D9D0108A4
:100090004D9D01084D9D01084D9D01087D360008CC
:1000A0004D9D01084D9D01084D9D0108D55E00083C
:1000B000B5600008C9600008DD600008A53B0008C5
:1000C000993B0008BD3B0008B13B00084D9D01086D
:1000D0004D9D01084D9D0108956E00084D9D01083C
:1000E000CD2F00084D9D01084D9D01080000000026
:1000F0000000000000000000000000000000000000
:0C01000000000000000000005FF808F1A3
:1001100008B540F24830074BC2F200001B1A062B0C
:1001200000D808BD40F20003C0F20003002BF8D055
:100130009847F6E74B03002008B540F2483040F2FC
:100140004833C2F20000C2F200031B1A9B1003EBFB
:10015000D373591000D108BD40F20002C0F2000272
:10016000002AF8D09047F6E710B540F24834C2F2C2
:100170000004237873B9FFF7CBFF40F20003C0F20D
:1001800000032BB14CF28420C0F60100AFF30080D5
:100190000123237010BD00BF08B540F20003C0F278
:1001A00000034BB14CF2842040F24C31C0F6010008
:1001B000C2F20001AFF3008040F24830C2F200000A
:1001C00003682BB140F20003C0F2000303B198476B
:1001D000BDE80840FFF7B0BF80B582B000AF03466E
:1001E000FB71824B5B7B002B04D0814B4FF00102F3
:1001F0001A7003E07E4B4FF000021A704FF400704B
:1002000002F088FC0346002B46D07A4B1B8819B2BB
:10021000794B93F864301A4613464FEA83039B18D0
:1002200099421CDD754B5B78002B18D0744B4FF056
:1002300001021A706F4B1B8819B26F4B93F8643030
:100240001A466D4B93F86530D21813464FEA830374
:100250009B18994203DD6A4B4FF002021A70654BFE
:100260001B8819B2644B93F864301A4613464FEA60
:1002700083039B18994207DD604B5B78002B03D109
:100280005F4B4FF002021A705A4B1B88002B03D1B0
:100290005B4B4FF000021A704FF0100002F0F4FBBD
:1002A0000346002B14D0514B9B7A002B03D14F4BAC
:1002B000DB7A002B08D0514BDB7A002B04D1514B59
:1002C0004FF001021A7003E04E4B4FF000021A701B
:1002D0004B4B1B78022B0AD14FF04C004FF04E01D4
:1002E0004FF04E024FF0440300F096F87AE0444B92
:1002F0001B78012B0AD14FF053004FF04D014FF006
:100300004C024FF04D0300F087F86BE03D4B1B783B
:10031000012B0AD14FF053004FF053014FF04E0222
:100320004FF04D0300F078F85CE0314B1B78012B67
:100330000AD14FF053004FF053014FF053024FF0EA
:100340004D0300F069F84DE0FB79042B0AD14FF022
:1003500053004FF04D014FF04D024FF0440300F0B9
:100360005BF83FE0FB79022B0AD14FF053004FF0CE
:1003700053014FF04D024FF0440300F04DF831E0CF
:10038000FB79012B0AD14FF053004FF04D014FF094
:100390004E024FF0440300F03FF823E01A4B1B7865
:1003A000012B0ED1154B5B78002B0AD04FF0530078
:1003B0004FF053014FF04D024FF04E0300F02CF878
:1003C00010E0124B1B78002B04D04FF0320000F0ED
:1003D000B9F807E00E4B4FF000021A700D4B4FF4C6
:1003E00080521A6107F10807BD4680BDB81200208F
:1003F0006D03002010090020E00B002050120020A7
:100400006E0300206F03002070030020000900200D
:10041000640300200008014080B584B000AFF8718B
:10042000B9717A713B71FB793B72BB797B727B79D5
:10043000BB723B79FB723D4B1B7807F11002D3185E
:1004400013F8083CA3F144030A2B29D801A252F85F
:1004500023F000BF91040008A1040008A1040008D3
:10046000A1040008A1040008A1040008A1040008D8
:10047000A104000889040008810400089904000808
:100480004FF06403FB810FE04FF0C803FB810BE0EA
:100490004FF4FA63FB8107E04FF00003FB8103E0B8
:1004A0004FF03203FB8100BF204B1B78022B06D894
:1004B000FB89002B03D0FB89184600F043F81B4B47
:1004C0001B78022B10D906F01BF90246FB89D21AC1
:1004D000174B1B689A4207D9144B4FF000021A7051
:1004E000144B4FF000021A70134B1B78012B02D0F3
:1004F000FB89002B16D10D4B1B78022B06D80B4B1A
:100500001B7803F10103DAB2084B1A700A4B4FF063
:1005100000021A70094B4FF000021A70084B4FF49A
:1005200080521A6107F11007BD4680BD6C030020A0
:1005300068030020000900206503002064030020F8
:100540000008014080B582B000AF0346FB80244B19
:100550001B78002B16D106F0D3F80246214B1B68FE
:1005600003F132039A420DD31D4B4FF001021A7072
:100570001D4B4FF480525A6106F0C2F80246194BE7
:100580001A6028E0164B1B78002B24D006F0B8F830
:100590000246F988134B1B68CB189A421BD3104BA9
:1005A0004FF000021A70104B4FF480521A6106F09F
:1005B000A7F802460B4B1A600C4B1B78002B06D099
:1005C0000A4B1B7803F1FF33DAB2084B1A70084B61
:1005D0004FF001021A7007F10807BD4680BD00BF49
:1005E0006403002068030020000801400009002087
:1005F000650300200000000080B584B000AFF86003
:10060000B9607A60FA687B68B2FBF3F3002B09D01B
:10061000FA687B68B2FBF3F31846B9687A68FFF7AB
:10062000EBFFB860FB687A68B3FBF2F2796801FB14
:1006300002F29B1A054AD25CBB681A70BB6803F1D0
:100640000103184607F11007BD4680BD74AF0108CD
:1006500080B584B000AFF860B9607A607B68012B28
:1006600002DD7B68242B02DD4FF00A037B60FB6810
:10067000002B14DABB684FF02D021A70FB68C3F12F
:100680000001BB6803F101027B68084611461A4667
:10069000FFF7B2FF03464FF000021A700AE0FA6853
:1006A0007B681046B9681A46FFF7A6FF03464FF06D
:1006B00000021A70BB68184607F11007BD4680BDDE
:1006C000B0B58EB000AF78604FF000037B6303E0FD
:1006D0007B6803F101037B607B681B78202BF7D0DC
:1006E0007B681B78092BF3D04FF000024FF07F534B
:1006F00003F54013C7E90A237B681B782D2B0CD127
:100700004FF000024FF03F4303F57003C7E90A239F
:100710007B6803F101037B6007E07B681B782B2B70
:1007200003D17B6803F101037B604FF000024FF0BF
:100730000003C7E9082322E0D7E908014FF00002CF
:100740004FF0804303F5101317F07EFF02460B466F
:1007500014461D467B681B78A3F13003184617F03A
:100760000DFF02460B462046294617F0BBFD024608
:100770000B46C7E908237B6803F101037B607B68B4
:100780001B782F2B03D97B681B78392BD4D97B6836
:100790001B782E2B3FD14FF000024FF0804303F522
:1007A0001013C7E904237B6803F101037B602AE08F
:1007B0007B681B78A3F13003184617F0DFFE024672
:1007C0000B4610461946D7E9042318F067F802468D
:1007D0000B46D7E9080117F085FD02460B46C7E92D
:1007E0000823D7E904014FF000024FF0804303F5DE
:1007F000101317F029FF02460B46C7E904237B6854
:1008000003F101037B607B681B782F2B03D97B6886
:100810001B78392BCCD94FF000024FF07F5303F5F2
:100820004013C7E906237B681B78652B03D07B68E0
:100830001B78452B7BD17B6803F101037B604FF074
:1008400000037B637B681B782D2B07D14FF00103DE
:100850007B637B6803F101037B6007E07B681B78A7
:100860002B2B03D17B6803F101037B604FF0000366
:10087000FB6011E0FA6813464FEA83039B184FEAC6
:1008800043031A467B681B78D318A3F13003FB603F
:100890007B6803F101037B607B681B782F2B03D9F6
:1008A0007B681B78392BE5D9FB68B3F59A7F12D9A1
:1008B0004FF49A73FB600EE0D7E9060130A3D3E949
:1008C000002317F0C1FE02460B46C7E90623FB686A
:1008D000A3F13203FB60FB68312BEDD80EE0D7E9C2
:1008E000060129A3D3E9002317F0AEFE02460B460A
:1008F000C7E90623FB68A3F10803FB60FB68072B2D
:10090000EDD811E0D7E906014FF000024FF0804327
:1009100003F5101317F098FE02460B46C7E90623AD
:10092000FB6803F1FF33FB60FB68002BEAD17B6BB4
:10093000002B08D0D7E90801D7E9062317F0AEFF4E
:1009400002460B4607E0D7E90801D7E9062317F06E
:100950007BFE02460B4610461946D7E90A2317F0DC
:1009600073FE02460B461046194618F02FF903464F
:10097000184607F13807BD46B0BD00BFAFF3008091
:100980009A647EC50E1B514A0000000084D797412F
:1009900080B58CB000AF7860396007F10C034FF080
:1009A00000021A6003F104034FF000021A6003F121
:1009B00004034FF000021A6003F10403584BFB627A
:1009C0007868584918F01CFC0346002B06D078685C
:1009D000554918F051F903467B6005E078685249A3
:1009E00018F048F903467B607868504918F04CFAD3
:1009F0000346184618F00EFC0346BB62BB6A83EA46
:100A0000E372A2EBE37207F11803104619464FF0A8
:100A10000A02FFF71DFEBB6A002B03DB4FF0200329
:100A20003B7302E04FF02D033B7307F118031846A8
:100A300018F0BAFE0346012B11D14FF030037B733F
:100A40004FF03003BB734FF03003FB7307F10C0220
:100A500007F118031046194618F0A2FD32E007F11D
:100A60001803184618F0A0FE0346022B0ED14FF0D3
:100A700030037B734FF03003BB7307F10C0207F1B7
:100A800018031046194618F08BFD1BE007F11803F8
:100A9000184618F089FE0346032B0BD14FF03003A4
:100AA0007B7307F10C0207F118031046194618F082
:100AB00077FD07E007F10C0207F11803104619460D
:100AC00018F06EFD07F10C03184618F06DFE034692
:100AD000DBB2A3F1030387F8273097F8273007F13B
:100AE0000C02386811461A4618F0B8FE97F82730FD
:100AF0003A68D3184FF000021A703868F96A18F093
:100B00004FFD97F8273007F10C02D31838681946C3
:100B100018F046FD3B68184607F13007BD4680BD1A
:100B20009CAF0108000000006F12033A00007A44F5
:100B300080B500AF014806F0AFF880BDA0AF010856
:100B4000B0B584B000AF786039607B68FB603B680B
:100B5000BB60FB681D68BB681C68BB681B681846E7
:100B600018F022FE0346284621461A4618F04CFE8D
:100B70000346184607F11007BD46B0BD80B586B0E4
:100B800000AF78604FF000033B61786818F00CFE0E
:100B90000346FB73FB7B002B16D14FF000037B61F8
:100BA0000EE01C4B7A6902F11C0233F812301A482D
:100BB00079691A460CF000FE7B6903F101037B6141
:100BC0007B69132BEDDD20E07B68BB60B86818F013
:100BD00067FB78617B69132B12DC78684FF020018A
:100BE00018F004FDB860B86818F05AFB38613B692A
:100BF00099B2084B7A6902F11C0223F8121004E042
:100C000006484FF014010CF0D7FD07F11807BD4658
:100C100080BD00BFE00B0020A8AF0108B4AF010801
:100C200080B58EB000AF78604FF000033B634FF0AB
:100C30000003FB62786818F0B7FD034687F8273099
:100C400097F82730002B40F0E280A64806F024F801
:100C50004FF000037B636BE0A34A7B6B03F101035E
:100C60004FEA0313D3181B681846AD4918F0A0FAD1
:100C70000346002B60D1FB6A03F10103FB627B6B2F
:100C800003F10103994819460CF096FD964A7B6BD7
:100C900003F101034FEA0313D3181A6807F1140391
:100CA00010461946FFF774FE0346914819460CF0AA
:100CB00083FD8D4A7B6B03F101034FEA0313D318C5
:100CC00003F104031A6807F1140310461946FFF7ED
:100CD0005FFE0346864819460CF06EFD824A7B6B28
:100CE0004FEA0313D31803F118031A6807F114032A
:100CF00010461946FFF74CFE03467D4819460CF096
:100D00005BFD794A7B6B4FEA0313D31803F11C0395
:100D10001A6807F1140310461946FFF739FE034617
:100D2000744819460CF048FD7B6B03F101037B63AB
:100D30007B6B0B2B90DD00E000BF794B3B613B6987
:100D4000FB60FB68BB604FF000037B6332E0BA6876
:100D500065497B6B03F101034FEA0313CB1803F1E1
:100D600004031B681046194617F086FF0346BB6054
:100D7000FA685D497B6B4FEA0313CB1803F1180344
:100D80001B681046194617F077FF0346FB603A6967
:100D900055497B6B4FEA0313CB1803F11C031B6807
:100DA0001046194617F068FF03463B617B6B03F161
:100DB00001037B637A6BFB6A9A42C8DB4E4805F0FD
:100DC0006BFF4FF000037B631AE07B6B4FEA8303FA
:100DD00007F13802D31853F8303C23F0004318468B
:100DE000504918F00DFA0346002B01D0434B00E0A8
:100DF000434B184605F050FF7B6B03F101037B6307
:100E00007B6B022BE1DD3F4805F046FF22E178686D
:100E10003D494FF0050218F0F7FC0346002B14D1B2
:100E20004FF000037B630CE02F4A7B6B03F101035F
:100E30004FEA0313D3183A4A1A607B6B03F101039C
:100E40007B637B6B0B2BEFDD04E178682F494FF060
:100E5000040218F0D9FC0346002B65D178684FF0E6
:100E6000200118F0C3FBB862BB6A002B00F0F180D0
:100E7000BB6A03F10103BB62B86A18F095FC034634
:100E800087F827304FF000037B63214B7A6B53F8D0
:100E90002230002B03D11F4805F0FEFEDAE01C4B88
:100EA0007A6B53F8222097F82730B86A11461A4611
:100EB00018F0AAFC0346002B0FD1786B09F0D6FB83
:100EC000134B7A6B53F82230134819460CF074FC1C
:100ED0001248FFF7A5FE00BFBCE07B6B03F10103E6
:100EE0007B63D2E7DCAF01087C0C002008B001086E
:100EF00010B0010814B001081CB001082CB00108A2
:100F000030B0010834B0010838B0010840B0010821
:100F1000EC9D010848B0010860B00108349F010849
:100F2000000000000AD7233C7B68BB62B86A18F057
:100F3000B7F978637B6B03F1FF337B637B6B0B2B20
:100F400000F38180B86A4FF0200118F04FFBB862BF
:100F5000BB6A002B13D0BB6A03F10103BB62B86A02
:100F6000FFF7AEFB02463D497B6B03F101034FEAFD
:100F70000313CB181A603B6B03F101033B63B86AA0
:100F80004FF0200118F032FBB862BB6A002B15D07D
:100F9000BB6A03F10103BB62B86AFFF791FB02462B
:100FA0002E497B6B03F101034FEA0313CB1803F1C6
:100FB00004031A603B6B03F101033B63B86A4FF013
:100FC000200118F013FBB862BB6A002B13D0BB6A78
:100FD00003F10103BB62B86AFFF772FB02461F49C7
:100FE0007B6B4FEA0313CB1803F118031A603B6BBA
:100FF00003F101033B63B86A4FF0200118F0F6FAE1
:10100000B862BB6A002B13D0BB6A03F10103BB6259
:10101000B86AFFF755FB024610497B6B4FEA031392
:10102000CB1803F11C031A603B6B03F101033B6314
:101030003B6B042B03D00A4805F02EFE0AE009485A
:10104000FFF7EEFD06E008484FF00C010CF0B4FB92
:1010500000E000BF07F13807BD4680BD7C0C0020D2
:1010600074B00108349F0108B0B0010880B584B0A5
:1010700000AF7860786818F097FBF860FB68002B89
:1010800016D00D4805F008FE786818F009F90346F7
:10109000FB72FA7A07F10A034FF0200011464FF075
:1010A000010202F0EBFEBB7A044819460CF084FB07
:1010B00007F11007BD4680BDD8B00108F4B00108A3
:1010C00080B582B000AF78600A4805F0E5FD4FF0CA
:1010D000010001F04BFA084805F0DEFD4FF00A0070
:1010E00005F0D4FB4FF0000005F01EFC07F10807E7
:1010F000BD4680BD08B1010824B1010880B58EB09D
:1011000000AF7860A8480CF057FBA848FFF736FD01
:10111000A74B5B7903F1FF32A64B53F82230A64868
:1011200019460CF049FBA24B1B691846B04918F050
:101130003FF80346002B40F0A6804FF000037B638E
:1011400094E09B4A7B6B03F101034FEA0313D3182E
:101150001B681846A64918F02BF80346002B40F0F0
:101160008A80934A7B6B03F101034FEA0313D31880
:101170001B683B638E4A7B6B03F101034FEA031349
:10118000D31803F104031B68FB62894A7B6B4FEAA7
:101190000313D31803F118031B68BB62844A7B6BEB
:1011A0004FEA0313D31803F11C031B687B627B6BAC
:1011B00003F10103814819460CF0FEFA386B8C49A3
:1011C00018F000F80346002B02D07D480CF0F4FA2A
:1011D00007F10C03386B1946FFF7DAFB0346794831
:1011E00019460CF0E9FAF86A814917F0EBFF03465B
:1011F000002B02D072480CF0DFFA07F10C03F86AFA
:101200001946FFF7C5FB03466E4819460CF0D4FAA1
:10121000B86A774917F0D6FF0346002B02D068481A
:101220000CF0CAFA07F10C03B86A1946FFF7B0FBD5
:101230000346644819460CF0BFFA786A6C4917F007
:10124000C1FF0346002B02D05D480CF0B5FA07F150
:101250000C03786A1946FFF79BFB03465A48194668
:101260000CF0AAFA7B6B03F101037B637B6B0B2B06
:101270007FF767AF00E000BF7B6B03F101035348CA
:1012800019460CF099FA01F08DFC38624FF000031A
:101290007B634F4B7A6B53F82230002B0CD04C4BB6
:1012A0007A6B53F822304B4819460CF085FA7B6B69
:1012B00003F101037B63ECE700BF4FF000037B63A6
:1012C000434B7A6B53F82230002B16D04FF00102BB
:1012D0007B6B02FA03F31A463B6A1340002B07D0DC
:1012E0003B4B7A6B53F822303B4819460CF064FABA
:1012F0007B6B03F101037B63E2E700BF4FF0000368
:101300007B6312E02A4A7B6BD31803F1F8039B79C5
:1013100032497A6B8A18127807F13801CB1803F832
:101320002C2C7B6B03F101037B637B6B072BE9DDCB
:1013300007F10C027B6BD3184FF000021A7007F113
:101340000C03274819460CF037FA4FF000037B6373
:1013500023E07A6B13464FEA83039B184FEA83031B
:10136000204A9B18FB611F497A6B13464FEA83039F
:101370009B184FEA8303CB181B681B4819460CF0D7
:101380001BFAF8694FF0000100F0D0FA174805F099
:1013900083FC7B6B03F101037B637B6B662BD8D9EA
:1013A00007F13807BD4680BD34B10108349F0108FC
:1013B0007C0C0020EC9D010864B1010870B10108AB
:1013C00078B101087CB1010814B0010880B10108AE
:1013D000D09E010894B10108A4B10108E4B4010849
:1013E000B4B1010868A70108C0B1010834B0010810
:1013F0000000000080B582B000AF78600C4805F0B6
:101400004BFC0C484FF000014FF0300218F062F82E
:10141000094B4FF000021A60084B4FF000021A709F
:10142000786800F063FA07F10807BD4680BD00BF89
:10143000CCB1010874030020A4030020A20B0020FB
:1014400080B586B000AF7860786818F0ADF9386183
:1014500001F0A8FBB8603B69002B27D1524805F08A
:101460001BFC4FF000037B61504B7A6953F822302C
:10147000002B16D07B694FF0010202FA03F31A46E3
:10148000BB681340002B07D0484B7A6953F82230D1
:10149000474819460CF090F97B6903F101037B6121
:1014A000E2E700BF434805F0F7FB79E0786842497E
:1014B0003A6918F0A9F90346002B1DD13F4805F001
:1014C000EBFB4FF000037B61384B7A6953F8223015
:1014D000002B0CD0354B7A6953F82230344819462A
:1014E0000CF06AF97B6903F101037B61ECE700BF53
:1014F000304805F0D1FB53E04FF00003FB737B68ED
:101500001B782D2B0AD14FF00103FB737B6803F18D
:1015100001037B603B6903F1FF333B614FF0000344
:101520007B61224B7A6953F82230002B03D1244887
:1015300005F0B2FB34E01D4B7A6953F8223078682D
:1015400019463A6918F060F90346002B23D1FB7B5A
:10155000002B0BD07B694FF0010202FA03F318460F
:1015600001F000FB174805F097FB0AE07B694FF09C
:10157000010202FA03F3184601F0E2FA124805F0FC
:101580008BFB0A4B7A6953F82230104819460CF04D
:1015900013F900BF04E07B6903F101037B61C0E73D
:1015A00007F11807BD4680BDE4B10108D09E0108CF
:1015B000F8B1010834B00108FCB1010804B2010817
:1015C0001CB2010838B2010844B2010814B0010885
:1015D00080B584B000AF78604FF00003FB60164820
:1015E00005F05AFB4FF00003FB601DE01349FA6859
:1015F00013464FEA43039B184FEA8303CB1819683D
:101600000E48FA6813464FEA43039B184FEA8303D8
:10161000C31803F104031B6809481A460CF0CCF800
:10162000FB6803F10103FB60FB680E2BDED907F1B9
:101630001007BD4680BD00BF50B2010808A10108D7
:1016400068B2010880B588B000AF7860786818F09B
:10165000ABF8B861BB69082B52D14FF00003FB61B6
:101660001DE07A68FB69D2187968FB69CB181B7892
:10167000FB753A4B1968FB7D03F10103CB181B780E
:1016800003F00303022B03D1FB7DA3F1200300E051
:10169000FB7DDBB21370FB6903F10103FB61FB69A6
:1016A000072BDED94FF00003FB6123E07A68FB696A
:1016B000D3181B782A48194617F098FF0346002BC9
:1016C00014D0FB6903F101037A68D2187968FB69C9
:1016D000CB181B781046194617F088FF0346002BDD
:1016E00004D1FB6903F10103FB6103E01D4805F030
:1016F000D3FA2FE0FB69072BD8D9786800F004FDF6
:10170000194805F0C9FA4FF00003FB6112E0174ACF
:10171000FB69D31803F1F8039B791149FA698A1818
:10172000127807F12001CB1803F8142CFB6903F1A0
:101730000103FB61FB69072BE9D907F10C02FB6987
:10174000D3184FF000021A7007F10C03084819462D
:101750000CF032F807F12007BD4680BD5002002092
:10176000E4B4010870B2010890B201087C0C0020BA
:1017700014B0010880B584B000AF7860786818F0C4
:1017800013F80346BB60BB68002B0BD1334B5B796E
:1017900003F1FF32324B53F82230324819460CF035
:1017A0000BF856E0BB6878682F491A4618F02CF8F9
:1017B0000346002B1DD12D4805F06EFA4FF00003B3
:1017C000FB60274BFA6853F82230002B0CD0244BD7
:1017D000FA6853F82230264819460BF0EDFFFB68F3
:1017E00003F10103FB60ECE700BF224805F054FA67
:1017F0002FE04FF00003FB60194BFA6853F82230DA
:10180000002B03D11C4805F047FA22E0144BFA687C
:1018100053F82220BB68786811461A4617F0F4FF87
:101820000346002B10D1FB68DBB203F10103DAB2EF
:101830000A4B5A710A4BFA6853F822300F4819467E
:101840000BF0BAFF00BF04E0FB6803F10103FB608B
:10185000D2E707F11007BD4680BD00BF7C0C002019
:10186000EC9D0108A8B20108FCB10108BCB2010856
:10187000F8B1010834B0010848B00108D0B201083D
:1018800080B584B000AF7860786817F08DFF0346AC
:10189000FB73FB7B002B07D1114B93F8EC32114803
:1018A00019460BF089FF17E0786817F0F9FCB8606B
:1018B000BB68002B10DBBB68022B0DDCBB68DAB207
:1018C000074B83F8EC224FF000004FF0000100F0CE
:1018D0009DFD0548FFF7D4FF07F11007BD4680BD09
:1018E0007C0C0020E4B20108349F010880B582B06E
:1018F00000AF78600B4805F0CFF94FF000004FF0D3
:10190000010100F083FD084805F0C6F94FF00A0018
:1019100004F0BCFF4FF0000005F006F807F10807DF
:10192000BD4680BDFCB2010808B3010880B586B091
:1019300000AF786039604FF000037B617B681B79F2
:10194000052B5ED801A252F823F000BF65190008EC
:101950006F1900087B190008851900089119000803
:101960009B1900087B689B681B787B6149E07B685A
:101970009B681B785BB27B6143E07B689B681B883C
:101980007B613EE07B689B681B881BB27B6138E013
:101990007B689B681B687B6133E07B689B681A6887
:1019A00007F10C0310461946FEF7F2FF03461F48E5
:1019B00019460BF001FF3B68002B32D07B68DB68D7
:1019C000184617F00DFA024607F10C0310461946A7
:1019D000FEF7DEFF0346164819460BF0EDFE7B6866
:1019E0001B69184617F0FCF9024607F10C03104674
:1019F0001946FEF7CDFF03460D4819460BF0DCFEF5
:101A00000FE00C4879690BF0D7FE3B68002B08D03B
:101A10007B68DA687B681B69074811461A460BF039
:101A2000CBFE07F11807BD4680BD00BF7CB10108A1
:101A300018B301081CB3010820B3010880B483B0B7
:101A400000AF786039607B681B79052B25D801A22F
:101A500052F823F06D1A00086D1A0008791A000870
:101A6000791A0008851A00088F1A00087B689B689D
:101A70003A68D2B21A7010E07B689B683A6892B2FA
:101A80001A800AE07B689B683A681A6005E07B6808
:101A90009B683A4612681A6000BF07F10C07BD4602
:101AA00080BC704790B589B000AF78604FF00003FC
:101AB000BB614FF000037B61804BBB60786817F01F
:101AC00073FE38613B69002B06D03B69012B31D195
:101AD0007B681B782A2B2DD1714805F0DDF84FF07B
:101AE0000003FB6122E0FA6913464FEA83039B1867
:101AF0004FEA83036B4A9B18FB606A49FA691346F5
:101B00004FEA83039B184FEA8303CB181B68664890
:101B100019460BF051FEF8683969FFF707FF634873
:101B200005F0BAF8FB6903F10103FB61FB69662B61
:101B3000D9D9B0E078684FF03D0117F057FDB86192
:101B4000BB69002B00F0A780BB6903F10103BB61F7
:101B50003B6903F1FF333B61B86917F0A1FB786182
:101B6000B869FEF7ADFD0346BB604FF00003FB61B3
:101B70008AE0FA6913464FEA83039B184FEA83030E
:101B8000484A9B18FB604749FA6913464FEA8303AA
:101B90009B184FEA8303CB181C684249FA69134625
:101BA0004FEA83039B184FEA8303CB181B68184640
:101BB00017F0FAFD0346786821461A4617F024FE0E
:101BC0000346002B5CD13749FA6913464FEA830379
:101BD0009B184FEA8303CB1803F10C031B681846CC
:101BE00017F0FEF80246BB681046194617F0F4FAE3
:101BF0000346002B40D02B49FA6913464FEA830372
:101C00009B184FEA8303CB1803F110031B68184697
:101C100017F0E6F80246BB681046194617F0E6FAD8
:101C20000346002B28D01F49FA6913464FEA830365
:101C30009B184FEA8303CB181B79052B03D107F1BF
:101C400008031B6800E07B69F8681946FFF7F6FE99
:101C50001449FA6913464FEA83039B184FEA83033A
:101C6000CB181B68124819460BF0A6FDF8684FF018
:101C70000001FFF75BFE0EE00E4805F00DF80AE0EC
:101C8000FB6903F10103FB61FB69662B7FF671AF12
:101C9000094805F001F807F12407BD4690BD00BFD3
:101CA00028B3010868A7010840B3010834B001084F
:101CB00048B3010854B301087CB3010800000000D8
:101CC00090B585B000AF786004F01AFD0246394B3C
:101CD000A3FB02134FEA9311374B1B781A46374B7D
:101CE0001B7837480BF068FD00F00AFFB860354BF1
:101CF0001A68354BA3FB02134FEA93433348194646
:101D00000BF05AFD4FF00003FB73FA7B304B53F896
:101D10002230002B16D0FB7B4FF0010202FA03F3B6
:101D20001A46BB681340002B07D0FA7B284B53F8A8
:101D30002230284819460BF03FFDFB7B03F10103DD
:101D4000FB73E2E700BF4FF0010000F09DFE034689
:101D5000002B1BD0204B1B781A46204B53F8223007
:101D60001F4819460BF028FD1B4B1B78022B0DD189
:101D70001C4B93F8ED30002B02D04FF06F0301E0C5
:101D80004FF06E03184819460BF016FD174804F083
:101D900083FF174B1B881C4602F028FC034615489E
:101DA00021461A464FF43C730BF006FD07F1140769
:101DB000BD4690BDD34D6210A0120020140100203A
:101DC0009CB301083802002083DE1B43DCB301080A
:101DD0001C9F0108F8B10108EE090020509F01087E
:101DE000FCB301087C0C002008B4010834B00108E1
:101DF0000C0900200CB4010880B582B000AF7860F7
:101E0000034804F049FF07F10807BD4680BD00BF45
:101E100040B4010890B58DB002AF974B1B78002BF2
:101E200040F06181944B4FF001021A70934804F026
:101E300033FFFEF77DFE56E104F0D8FE0346FB7546
:101E4000FB7D092B03D0FB7D3F2B40F09B804FF0A7
:101E500000033B624FF00003FB61894B1B68BB61D1
:101E6000884B7B621CE0864B1B68002B0BD07B6A87
:101E70001A68834B1B68844811461A4617F0C4FC45
:101E80000346002B07D13B6A002B01D17B6A3B62E2
:101E90007B6AFB6100E000BF7B6A03F10C037B629D
:101EA0007A6A7A4B9A42DED33B6A002B32D03B6A85
:101EB0001A68734B1B68D3181A78FB691968704B42
:101EC0001B68CB181B789A4223D13B6A1A686C4B6B
:101ED0001B68D3181B78002B0AD1694B1B686A4A10
:101EE0004FF02001D15403F10102654B1A6011E05B
:101EF000634B1B683A6A1168614A12688A18117844
:101F0000614AD1545E4B1B6803F101025C4B1A60BD
:101F1000CDE700BF5A4B1B68002B03D03A6AFB6920
:101F20009A4228D05A4804F0B7FE3B6A7B620CE024
:101F30007B6A1B68184604F0AFFE4FF0090004F0FE
:101F400087FE7B6A03F10C037B627A6AFB699A4223
:101F5000EED9FEF7EDFD4FF00003BB610BE04A4AFE
:101F6000BB69D3181B78184604F072FEBB6903F1F5
:101F70000103BB6100E000BFBA69414B1B689A4294
:101F8000EDD3B3E03E4B1B68002B06D1FB7D042B49
:101F900003D13D48FFF72EFAAEE0FB7D0C2B05D1B7
:101FA0003C4804F079FEFEF7C3FD9FE0344B1B680C
:101FB000002B4AD0FB7D0A2B02D0FB7D0D2B44D198
:101FC0004FF000033B61344804F066FE2C4B1B6865
:101FD0002D4A4FF00001D1542B4B7B604FF0000392
:101FE000BB6007F104032D4A0092184625494FF0C3
:101FF0000F024FF00C0317F05BF938613B69002BBF
:102000000ED03B699C683B691B68184617F0CCFBF7
:10201000034603F101021C4BD3181846A04702E007
:102020001F4804F039FE18484FF000014FF030020D
:1020300017F050FA124B4FF000021A600E4B1B784B
:10204000002B59D0FEF774FD50E0FB7D7F2B2BD188
:102050000B4B1B68002B49D0094B1B6803F1FF3267
:10206000074B1A60064B1B68074A4FF00001D1541A
:102070000C4804F011FE39E0A20B002070B40108F6
:10208000A403002008A1010874030020BCA10108DA
:10209000A8B40108B0B4010834B00108410B00082D
:1020A000BCB40108E0B40108154B1B682F2B1DD8E8
:1020B000FB7D1F2B1AD9FB7D7E2B17D8104B1B687D
:1020C000002B02D1FB7D202B0FD00D4B1B680D4A3E
:1020D000F97DD15403F10102094B1A60FB7D1846CA
:1020E00004F0B6FD02E000BF00E000BF04F056FDC2
:1020F0000346002B7FF4A0AE07F12C07BD4690BD30
:10210000A40300207403002080B584B000AF786081
:102110007B68FB6018E0FB681B780F48194617F0D6
:1021200065FAB860BB68002B0AD0BA680A4BD31AAC
:10213000F9687A688A1AD2B20849CB1883F8FE2067
:10214000FB6803F10103FB60FB681B78002BE2D105
:1021500007F11007BD4680BDE4B401087C0C0020E7
:1021600080B485B000AF1F4B7B604FF00003FB7263
:102170007B681A781C4B1B789A4202D04FF0000300
:102180002AE07B685B88B3F53C7F08D17B681B79CC
:10219000BE2B04D17B6893F8ED32EF2B02D04FF0C9
:1021A000000319E07B68FB6008E0FB681A78FB7AA3
:1021B0005340FB72FB6803F10103FB607B6803F58E
:1021C0003C72FB689A42F0D8FB7A002B02D04FF0A9
:1021D000000301E04FF00103184607F11407BD4664
:1021E00080BC704700FC010800000020F0B583B0FF
:1021F00000AFFFF7B5FF0346002B03D14FF00A00F5
:1022000004F05EFB79487A494FF43C7217F0A8F865
:10221000764B93F8EC32022B04D9744B4FF000024A
:1022200083F8EC22714B93F8EC324FF09C0202FBE6
:1022300003F303F58C726D4BD3186E4A11461A46A0
:102240004FF09C03084611461A4617F089F84FF0E4
:102250000003FB7123E0FA79664BDB7FF979F879AB
:1022600000FB01F1A1F1190101FB03F303F6C41313
:10227000F97901FB03F35F49897F01FB03F35E49B1
:1022800081FB03014FEAA1214FEAE373CB1A99B214
:102290005A4B23F81210FB7903F10103FB71FB7910
:1022A000052BD8D94FF00003FB717EE0FB799BB280
:1022B0001A464FEA8202D3184FEA43039AB24D4BB3
:1022C00093F82030D31A9BB2BB804FF00103BB714F
:1022D000B7F90430002B05DD464B93F82030C3F1ED
:1022E0006403BB71B7F90430002B03DA414B93F858
:1022F0002030BB71FA793F4B93F8203019464FEAF2
:102300008101CB184FEA430399B2B7F90430394839
:1023100090F82100C0F16404364890F82100B7F924
:102320000450B7F9046006FB05F505FB00F5B87924
:10233000BE7906FB00F095FBF0F0201800FB03F3DC
:102340002F4880FB03C04FEAA0004FEAE373C31A93
:102350009BB2CB189BB299B22A4B23F81210FA7990
:10236000224BB3F8D010214BB3F8D23018461F4B94
:10237000B3F8D030C31AFC79224830F8140000B208
:1023800000FB03F3204880FB03C04FEAA0104FEA94
:10239000E373C31A9BB2CB189BB299B2194B23F8C3
:1023A0001210FB7903F10103FB71FB790A2B7FF615
:1023B0007DAF104BB3F86A200E4BB3F86C309A42E5
:1023C00003D20C4BB3F86C3009E00A4BB3F86A2027
:1023D000084BB3F86E309A4238BF13469BB2054A99
:1023E000A2F86A3007F10C07BD46F0BD7C0C002056
:1023F00000FC0108E00B0020AD8BDB68EC12002034
:102400006766666668120020D34D621080B588B09A
:1024100000AF02460B46FA71BB714FF00003FB762A
:102420004FF000033B614C4B1A784C4B1A704B4BEE
:102430004FF43C725A80494B4FF0BE021A71474B21
:102440004FF0EF0283F8ED22444B4FF0000283F887
:10245000EE22BB79002B14D0404B93F8EC324FF0B6
:102460009C0202FB03F303F58C723C4BD2183C4BED
:1024700011461A464FF09C03084611461A4616F0BC
:102480006FFF364B7B6108E07B691A78FB7E534017
:10249000FB767B6903F101037B617A69314B9A42D8
:1024A000F2D32E4BFA7E83F8EE220FF0B5F94FF0FF
:1024B00034000FF097FD2C480FF0EEF90346042B83
:1024C0002AD14FF00003FB611FE0FB6903F10063B9
:1024D00003F5FE33F969214A8A1812681846114635
:1024E0000FF0DCFA0346FB73FB7B042B09D00FF0E3
:1024F000B7F93B6903F101033B613B69022B0ADC3D
:10250000D3E7FB6903F10403FB61FA6940F2EF23AF
:102510009A42DAD900E000BF0FF0A2F93B69032B21
:1025200004D0FFF71DFE0346002B03D14FF00A0035
:1025300004F0C6F9FFF75AFEFB79002B07D04FF0E5
:102540000F004FF014014FF0010208F081FE07F177
:102550002007BD4680BD00BF000000207C0C00208D
:10256000E00B00206C0F002000FC010880B582B059
:1025700000AF0346FB71FFF7F3FD0346002B02D0CB
:10258000FB79002B07D000F00BF84FF000004FF064
:102590000001FFF73BFF07F10807BD4680BD00BF04
:1025A00080B584B000AF9C4A3B461068516803C3B5
:1025B000127A1A7099484FF000014FF43C7216F0ED
:1025C00089FF97484FF000014FF09C0216F082FF00
:1025D000944B1A78914B1A70904B4FF003025A713A
:1025E00000F0D4FA4FF00A0000F0AAFA8B4B4FF03B
:1025F000000283F8EC22894B4FF4C872A3F8E6205E
:10260000864B4FF02A02A3F8E420844B4FF00002DF
:10261000A3F8EE20814B4FF00002A3F8F0207F4B8F
:102620004FF00002A3F8F2207C4B03F1DA023B46A4
:1026300003CB106051601B781372784B4FF000028F
:1026400083F8E320754B4FF0200283F8EC20734BA6
:10265000754AC3F8E820714B4FF06E0283F8FA20F8
:102660006E4B4FF02B0283F8FB206C4B4FF0210296
:1026700083F8FC20694B4FF0000283F8FD20674B84
:102680004FF0010283F80621644B40F2DC52A3F8BC
:102690000821624B40F24C42A3F80A215F4B40F202
:1026A0006C72A3F80C215D4B4FF0000283F80E21F1
:1026B0005A4B40F27E42A3F8D020584B40F23A7277
:1026C000A3F8D220554B4FF47A72A3F8D420534B81
:1026D0004FF4C872A3F8D620504B4FF03202A3F843
:1026E000D8204E4B4FF0030283F80F214B4B4FF491
:1026F000E132C3F81021494B4FF4E132C3F8142101
:10270000464B40F6AC529A81454B4FF028021A7066
:10271000434B4FF01E029A72414B4FF017021A754D
:102720003F4B4FF028025A703D4B4FF01E02DA72B9
:102730003B4B4FF017025A75394B4FF055029A70C8
:10274000374B4FF02D021A73354B4FF000029A753C
:10275000334B4FF04002DA70314B4FF019025A738D
:102760002F4B4FF01802DA752D4B4FF00B021A71F8
:102770002B4B4FF000029A73294B4FF000021A7650
:10278000274B4FF014025A71254B4FF00802DA73B1
:10279000234B4FF02D025A76214B4FF00E029A71C7
:1027A0001F4B4FF014021A741D4B4FF050029A76D3
:1027B0001B4B4FF05A02DA71194B4FF00A025A7450
:1027C000174B4FF06402DA76154B4FF028021A725D
:1027D000134B4FF000025A72114B4FF00002DA74A3
:1027E0000F4B4FF000025A770D4B4FF05A029A7779
:1027F0000B4B4FF04102DA77094B4FF0000283F8A0
:102800002220074B4FF0000283F82320044B4FF0A7
:10281000000283F8242009E0FCB401087C0C0020AD
:10282000E00B00200000002003141400904B4FF038
:10283000320283F820208E4B4FF0000283F82120D3
:102840008B4B4FF000021A85894B4FF000025A85DE
:10285000874B4FF00002DA84854B4FF0040283F877
:102860002C20834B4FF00A0283F82D20804B4FF031
:10287000320283F82E207E4B4FF0150283F82F2072
:102880007B4B7E4A1A637A4B7D4A5A637948FFF73D
:102890003BFC774B4FF0000283F86020744B4FF005
:1028A000000283F86120724B4FF0280283F8622007
:1028B0006F4B4FF0010283F863206D4B4FF00A021B
:1028C00083F864206A4B4FF0C80283F86520684B98
:1028D0004FF49662A3F86620654B4FF0010283F82F
:1028E0006820634B40F2DC52A3F86A20604B4FF43F
:1028F0007F72A3F86C205E4B4FF4FA62A3F86E204F
:102900005B4B4FF47F72A3F87020594B40F2DC52BE
:10291000A3F87220564B4FF4FA62A3F87420544B7C
:102920004FF47F72A3F87620514B40F2DC52A3F8AB
:1029300078204F4B4FF4FA62A3F87A204C4B4FF0BB
:10294000010283F87C204A4B4FF0FF0283F87D2080
:10295000474B4FF0010283F87E20454B4FF00102B8
:1029600083F87F20424B4FF00A0283F88020404BCF
:102970004FF00A0283F881203D4B4FF0010283F8AB
:1029800082203B4B4FF47F72A3F88420384B4FF4E6
:10299000FA62A3F88620364B40F2DC52A3F8882076
:1029A000334B4FF47F72A3F88A20314B4FF4FA6215
:1029B000A3F88C202E4B40F2DC52A3F88E202C4B37
:1029C0004FF0C802A3F89020294B4FF0140283F86F
:1029D0009220274B4FF01E0283F89320244B4FF098
:1029E000010283F89420224B4FF06402A3F8962052
:1029F0001F4B4FF49672A3F898201D4B4FF02802FE
:102A0000A3F89A204FF00003FB600CE01A4AFB6821
:102A100003F101034FEA0313D3181A4A1A60FB6843
:102A200003F10103FB60FB680B2BEFDD4FF00003AC
:102A3000FB6016E0FB684FF09C0202FB03F303F51A
:102A40008C720D4BD2180A4B11461A464FF09C035C
:102A5000084611461A4616F083FCFB6803F1010391
:102A6000FB60FB68022BE5DD07F11007BD4680BD6A
:102A7000E00B0020F0B401087C0C00209A99193F6B
:102A8000F6287C3F0000000080B483B000AF78607F
:102A9000074B1A687B681340002B0CBF00230123EF
:102AA000DBB2184607F10C07BD4680BC704700BF7B
:102AB000A803002080B483B000AF7860054B1A688B
:102AC0007B681A43034B1A6007F10C07BD4680BCB4
:102AD000704700BFA803002080B483B000AF7860C7
:102AE0007B686FEA0302054B1B681A40034B1A60B0
:102AF00007F10C07BD4680BC704700BFA80300204B
:102B000080B400AF024B1B681846BD4680BC7047BE
:102B1000A803002080B483B000AF7860074B9A68A8
:102B20007B681340002B0CBF00230123DBB2184647
:102B300007F10C07BD4680BC704700BF7C0C00202D
:102B400080B483B000AF7860054B9A687B681A4305
:102B5000034B9A6007F10C07BD4680BC704700BF6D
:102B60007C0C002080B483B000AF7860064B9A687C
:102B70007B686FEA03031A40034B9A6007F10C0766
:102B8000BD4680BC704700BF7C0C002080B400AF05
:102B9000034B4FF000029A60BD4680BC704700BFF7
:102BA0007C0C002080B400AF024B9B681846BD46E9
:102BB00080BC70477C0C002080B594B000AF78607A
:102BC0007B681B78002B0CBF0023012387F84F3054
:102BD0004D480EF09BFA4D4BFB604D4B3B614FF067
:102BE00000037B6197F84F30002B02D04FF00203B7
:102BF00001E04FF00103BB614FF00003FB6197F868
:102C00004F30002B02D04FF0800301E04FF0000363
:102C10003B624FF480737B624FF48063BB624FF082
:102C20002003FB624FF400533B634FF000037B63D0
:102C300007F10C03344819460EF028FB32484FF0D8
:102C400001010EF099FB4FF00003BB6397F84F3082
:102C500087F83C304FF0010387F83D304FF4602394
:102C60003B644FF000037B6497F84F30002B02D099
:102C70004FF0020301E04FF0010387F8483007F1FD
:102C80003803244819460DF001FD22484FF0040195
:102C90004FF001024FF003030DF0A0FE97F84F3004
:102CA000002B09D07B681B781A4819464FF00202A6
:102CB0004FF003030DF092FE16484FF001010DF0A6
:102CC0007BFD14484FF001010DF05AFD11480DF045
:102CD000B3FD00BF0F480DF0BFFD0346002BF9D137
:102CE0000C480DF0D5FD00BF0A480DF0E1FD03468C
:102CF000002BF9D107484FF001010DF0F5FD07F168
:102D00005007BD4680BD00BF080002404C24014072
:102D1000AC0300200024014080B483B000AF034620
:102D2000FB71FA79044B33F812309BB2184607F165
:102D30000C07BD4680BC7047AC03002080B584B052
:102D400000AF786039604FF00003FB734FF0000371
:102D5000BB7307F10E034FF053004FF000014FF02B
:102D6000010201F08BF80346FB73FB7B83F0010348
:102D7000DBB2002B02D1BB7BE52B02D04FF000036E
:102D80000EE07B681A78094B1A703B68084A1A6093
:102D90003B68084A5A603B68074A9A604FF0010353
:102DA000184607F11007BD4680BD00BFB0030020E4
:102DB000BD2D0008692E0008B92F000880B582B02B
:102DC00000AF274B1B78002B2AD04FF01003FB716C
:102DD0004FF053004FF02D014FF0080201F034F88E
:102DE0004FF053004FF031014FF00A0201F02CF880
:102DF0004FF053004FF02C014FF00C0201F024F87B
:102E0000FB7903F01F03DBB263F07F03DBB2DBB2BD
:102E10004FF053004FF038011A4601F015F817E053
:102E20004FF053004FF02D014FF0080201F00CF865
:102E30004FF053004FF031014FF00A0201F004F857
:102E40004FF053004FF02C014FF00A0200F0FCFF4E
:102E5000044B40F209121A8007F10807BD4680BDF5
:102E6000B00300201801002080B588B000AF786062
:102E70004F4B1B78002B67D04FF00003FB614FF0E6
:102E80000003BB614FF000037B614FF00003FB7454
:102E9000FB7C03F10103FB7407F108034FF05300BF
:102EA0004FF032014FF0080200F0E8FF3B7A1A467B
:102EB0007B7A4FEA03239BB2D3189BB29BB21BB21F
:102EC000FA69D318FB61BB7A1A46FB7A4FEA0323EF
:102ED0009BB2D3189BB29BB21BB2BA69D318BB6129
:102EE0003B7B1A467B7B4FEA03239BB2D3189BB2F2
:102EF0009BB21BB27A69D3187B61FB7B03F07F0323
:102F0000BB74FB7C1F2B02D8BB7C002BC0D1FB7C8D
:102F1000FA6992FBF3F39AB27B681A807B6803F13B
:102F20000203FA7CB96991FBF2F292B21A807B68D3
:102F300003F10403FA7C796991FBF2F292B21A80F0
:102F40001C4BFA7C1A702EE007F108034FF0530077
:102F50004FF032014FF0060200F090FF3B7A1A4624
:102F60007B7A4FEA03239BB2D3189BB29AB27B6859
:102F70001A807B6803F10203BA7A1146FA7A4FEAA3
:102F8000022292B28A1892B292B21A807B6803F13E
:102F900004033A7B11467A7B4FEA022292B28A18E6
:102FA00092B292B21A8007F12007BD4680BD00BFE1
:102FB000B0030020B103002080B483B000AF78607C
:102FC00007F10C07BD4680BC704700BF80B500AF5D
:102FD0004FF480400EF09EFB0346012B07D14FF4C7
:102FE00080400EF0BFFB024B4FF001021A7080BD13
:102FF000B403002080B588B000AF7860534B1B78D5
:10300000002B02D04FF001039BE04FF40053BB8331
:103010004FF00203BB774FF01003FB7707F11C035F
:103020004B4819460FF034F94FF48043BB834FF0FF
:103030000403FB7707F11C03454819460FF028F9F4
:10304000434B4FF400521A614FF002004FF00E0153
:103050000FF07EFB4FF480437B614FF000033B7623
:103060004FF008037B764FF00103BB7607F11403A2
:1030700018460EF083FA4FF028033B744FF00F030D
:103080007B744FF00F03BB744FF00103FB7407F127
:10309000100318460DF0FEF94FF0140003F0F6FB94
:1030A00007F10F034FF077004FF0D0014FF001020E
:1030B00000F0E4FEFA7B274BDA75264B4FF0030253
:1030C0001A84244BDB7D552B35D107F10F034FF0CC
:1030D00077004FF0D1014FF0010200F0CFFEFB7BF3
:1030E00003F00F03DAB21B4B1A76FB7B4FEA131384
:1030F000DAB2184B5A7600F0E7F9144B4FF00102A0
:103100001A707B6841F270721A807B6846F67812FA
:103110005A807B68104A5A607B68104A9A607B68C4
:103120000F4ADA607B680F4A1A617B680E4A5A615F
:103130004FF0010305E0064B4FF400525A614FF087
:103140000003184607F12007BD4680BDDC030020C0
:1031500000100140B80300203D330008613300082F
:10316000C5330008053400087D34000880B487B0FA
:1031700000AF78607A68184B5B89D31A164A1289B7
:1031800002FB03F34FEAE3337B61134B5B8A1BB211
:103190004FEAC322104B9B8A19B27B69CB1892FB72
:1031A000F3F33B617A693B69D2180B4BDA610A4B46
:1031B000DA6913464FEA83039B184FEA430303F18E
:1031C00008034FEA2313FB60FB68184607F11C074E
:1031D000BD4680BC704700BFB803002080B48BB0F0
:1031E00000AF7860534BDB69A3F57A633B623B6ABF
:1031F0003A6A02FB03F34FEA2333FB614D4BDB8951
:103200001AB2FB6902FB03F3FB61FB694FEAE3239C
:10321000FB61484B5B881BB23A6A02FB03F3BB615C
:10322000BB694FEAE323BB61FA69BB69D3187B61D1
:10323000404B1B881BB24FEA83027B69D2183D4B7F
:103240001B8C1BB202FA03F303F102034FEAA30340
:103250003B61384B9B881BB23A6A02FB03F34FEA8F
:103260006333FB61334B9B891BB23A6A396A01FBBA
:1032700002F24FEA223202FB03F34FEA2343BB611F
:10328000FA69BB69D31803F102034FEAA3037B6118
:10329000284BDB887A6902F5004202FB03F34FEA10
:1032A000D333FB603B697A68D31A224A128C12B27C
:1032B0004CF2503141FA02F202FB03F3BB60BB68EF
:1032C000002B07DBBB684FEA4302FB68B2FBF3F35A
:1032D0007B6206E0BA68FB68B2FBF3F34FEA430394
:1032E0007B627B6A4FEA2323FB61FB69FA6902FB7D
:1032F00003F3FB61FB6940F6DE3202FB03F34FEAA6
:103300002343FB617B6A0C4A02FB03F34FEA23432E
:10331000BB61FA69BB69D31803F6CF634FEA231385
:103320007A6AD3187B627B6A184607F12C07BD4680
:1033300080BC7047B803002043E3FFFF80B500AFB7
:10334000064B4FF000021A704FF077004FF0F40177
:103350004FF02E0200F078FD80BD00BFB4030020C6
:1033600080B582B000AF42F21073FB80124B1B7825
:1033700083F00103DBB2002B06D0104B1B8803F156
:1033800001039AB20D4B1A8007F104034FF0770046
:103390004FF0F6014FF0020200F070FD3B794FEA6A
:1033A00003239AB27B7913439BB29AB2044B1A80DF
:1033B00007F10807BD4680BDB4030020B603002016
:1033C000DE03002080B582B000AF0C4B1B8CDBB25B
:1033D0004FEA8313DBB203F13403FB71084B4FF068
:1033E00000021A70FB794FF077004FF0F4011A4693
:1033F00000F02AFD07F10807BD4680BDB803002094
:10340000B403002080B582B000AF42F21073FB809D
:10341000164B1B7883F00103DBB2002B06D0144B54
:103420001B8803F101039AB2114B1A803B464FF0FF
:1034300077004FF0F6014FF0030200F01FFD3B78DC
:103440004FEA03427B784FEA03231A43BB781A43BF
:10345000084B1B8C1BB2C3F1080322FA03F2064B84
:103460001A6007F10807BD4680BD00BFB403002005
:10347000B6030020B8030020E003002080B584B02C
:1034800000AF786039600E4B1B881846FFF76EFE60
:10349000F8600C4B1B681846FFF7A0FEB8607B680D
:1034A000002B02D07B68BA681A603B68002B02D000
:1034B0003B68FA681A6007F11007BD4680BD00BF7F
:1034C000DE030020E003002080B586B000AF3B465D
:1034D0004FF077004FF0AA014FF0160200F0CEFC3B
:1034E0003B784FEA03239AB27B7813439AB2314B6D
:1034F0001A80BB784FEA03239AB2FB7813439AB23F
:103500002C4B5A803B794FEA03239AB27B791343C1
:103510009AB2284B9A80BB794FEA03239AB2FB797F
:1035200013439BB29AB2234BDA803B7A4FEA0323D0
:103530009AB27B7A13439BB29AB21E4B1A81BB7A22
:103540004FEA03239AB2FB7A13439BB29AB2194B08
:103550005A813B7B4FEA03239AB27B7B13439AB297
:10356000144B9A81BB7B4FEA03239AB2FB7B134334
:103570009AB2104BDA813B7C4FEA03239AB27B7CF0
:1035800013439AB20B4B1A82BB7C4FEA03239AB2C5
:10359000FB7C13439AB2074B5A823B7D4FEA0323CD
:1035A0009AB27B7D13439AB2024B9A8207F11807B5
:1035B000BD4680BDB803002080B483B000AF034691
:1035C000FB71094B97F907204FEA5212F97901F084
:1035D0001F014FF0010000FA01F143F8221007F13A
:1035E0000C07BD4680BC704700E100E080B582B0AA
:1035F00000AF194B1B88194819460EF037FF0346D8
:10360000002B05D003F05AF80246154B1A6019E05A
:1036100003F054F87860124B1B687A689A4211D90B
:103620000F4B1B687A68D31A3B600E4B1A683B68D5
:103630000D4981FB03014FEAE1014FEAE373CB1A25
:103640009BB21380094B1B6818460EF08BF807F1EC
:103650000807BD4680BD00BFE6030020000C014006
:10366000F8030020F4030020BF3CB622E80300204A
:1036700080B500AFFFF7BAFF80BD00BF80B500AFD7
:10368000FFF7B4FF80BD00BF80B586B000AF034632
:10369000FB71FB79002B02D0012B15D029E0394BAF
:1036A0004FF480721A80384B4FF400721A80374BF7
:1036B0004FF400721A60364B4FF009021A70354B06
:1036C0004FF017021A7014E02E4B4FF001021A80CF
:1036D0002D4B4FF002021A802C4B4FF002021A6061
:1036E0002B4B4FF001021A702A4B4FF007021A7051
:1036F00000BF244B1B88BB824FF01003FB754FF0BB
:103700000203BB7507F11403234819460EF0C0FDF0
:103710001D4B1B88BB824FF00403FB7507F114039C
:103720001D4819460EF0B4FD194B1B784FF00100EF
:1037300019460FF00DF8154B1B6818460EF012F8DD
:10374000124B1B68FB604FF000033B744FF01003FB
:103750007B744FF00103BB7407F10C0318460DF0A6
:103760000DFF0C4B1B785BB21846FFF725FF02F0EC
:10377000C7FF0346A3F13C02084B1A6007F1180784
:10378000BD4680BDE4030020E6030020E8030020DE
:10379000EC030020ED030020000C0140F0030020AA
:1037A00080B584B000AF786002F0AAFFF860114BDA
:1037B0001B6803F13C02FB689A4216D80D4BFA686D
:1037C0001A600D4B7A681A600C4B1B880C4819461E
:1037D0000EF0A4FE4FF00B0003F044F8074B1B88DB
:1037E000074819460EF0A8FE00E000BF07F11007D9
:1037F000BD4680BDF0030020F4030020E403002058
:10380000000C01400000000080B582B000AF4FF016
:103810000003FB714FF00003BB7107F106034FF08B
:103820001E004FF00A014FF0010200F027FB034693
:10383000FB71FB7983F00103DBB2002B02D1BB7972
:10384000482B02D04FF0000301E04FF0010318466F
:1038500007F10807BD4680BD80B58EB000AF786027
:103860004FF00003FB604FF000033B614FF000039B
:103870007B614FF0010387F833304FF48053BB85F1
:103880004FF0020387F82E304FF0040387F82F30F3
:1038900007F12C03A04819460EF0FAFC4FF0320055
:1038A00002F0F4FF4FF01E004FF000014FF0110244
:1038B00000F0CAFA4FF01E004FF001014FF0400235
:1038C00000F0C2FA4FF0640002F0E0FF07F11803C5
:1038D000184600F027F94FF000037B6341E04FF0FA
:1038E0001E004FF002014FF0010200F0ADFA4FF060
:1038F000320002F0CBFF07F11803184600F012F96E
:10390000FA683B8B1BB2D318FB603A697B8B1BB206
:10391000D3183B617A69BB8B1BB2D3187B61BA8B1E
:103920007B8B12B21BB29A42B8BF13469AB23B8B42
:1039300012B21BB29A42B8BF13469BB21AB2774B6F
:103940009A4204DA4FF0000387F833300CE0724BF0
:10395000714AD26882F01002DA607B6B03F10103D6
:103960007B637B6B092BBADD4FF01E004FF000012B
:103970004FF0120200F068FA4FF000037B6341E061
:103980004FF01E004FF002014FF0010200F05CFA10
:103990004FF0320002F07AFF07F11803184600F0EA
:1039A000C1F8FA683B8B1BB2D31AFB603A697B8B78
:1039B0001BB2D31A3B617A69BB8B1BB2D31A7B61F2
:1039C000BA8B7B8B12B21BB29A42B8BF13469AB223
:1039D0003B8B12B21BB29A42B8BF13469BB21AB2CB
:1039E0004E4B9A4204DA4FF0000387F833300CE074
:1039F000494B494AD26882F01002DA607B6B03F1CE
:103A000001037B637B6B092BBADDFB68184614F05E
:103A1000B5FD02460B463CA1D1E9000114F03EFF82
:103A200002460B461046194615F0D0F8034623F01F
:103A300000433B623B69184614F0A0FD02460B466A
:103A400031A1D1E9000114F029FF02460B461046CE
:103A5000194615F0BBF8034623F000437B627B69EF
:103A6000184614F08BFD02460B4629A1D1E900014E
:103A700014F014FF02460B461046194615F0A6F83E
:103A8000034623F00043BB624FF01E004FF00001DD
:103A90004FF0700200F0D8F94FF01E004FF0010116
:103AA0004FF0200200F0D0F94FF01E004FF002015D
:103AB0004FF0000200F0C8F94FF0640002F0E6FE9B
:103AC00097F8333083F00103DBB2002B05D0144BA1
:103AD0003B62134B7B62124BBB627B68002B0CD0AA
:103AE0003A6A7B681A607B6803F104037A6A1A6099
:103AF0007B6803F10803BA6A1A6007F13807BD460C
:103B000080BD00BFAFF30080000000000094D240F1
:103B100000000000004CD140000C014001F0FFFF0C
:103B20000000803F80B584B000AF786007F10803E3
:103B30004FF01E004FF003014FF0060200F09EF917
:103B40003B7A4FEA03239AB27B7A13439AB27B689B
:103B50001A807B6803F10203BA7A4FEA022291B21B
:103B6000FA7A0A4392B21A807B6803F104033A7B23
:103B70004FEA022291B27A7B0A4392B21A8007F18D
:103B80001007BD4680BD00BF80B400AFBFF35F8F9C
:103B9000BD4680BC704700BF80B500AF00F014F890
:103BA00080BD00BF80B500AF00F00AFA80BD00BF45
:103BB00080B500AF00F008F880BD00BF80B500AF51
:103BC00000F0FEF980BD00BF80B582B000AF3B4B76
:103BD0001B689B8A9BB27B607B6803F47063002B3D
:103BE00003D0374B4FF001021A707B6803F4E06397
:103BF000002B51D0314B1B681B8B9BB23B602F4B72
:103C00001B6818464FF480614FF000020FF038F83F
:103C10007B6803F40073002B3ED1284B1B681B8884
:103C20009BB203F40073002B36D1244B1B681B8816
:103C30009BB203F48073002B1ED000BF1F4B1B6888
:103C40001B889BB203F48073002BF7D11B4B1B68BE
:103C500018464FF001010EF071FF00BF174B1B68B3
:103C60001B889BB203F40073002BF7D1134B1B6826
:103C7000184600F04BFC0FE0104B1B6818464FF045
:103C800001010EF05BFF0D4B1B6818464FF44071AD
:103C90004FF000020EF0F4FF084B1B68074A126851
:103CA000928A92B222F4706292B29A82054B4FF0DD
:103CB00000021A7007F10807BD4680BDFC03002012
:103CC000020400200304002080B588B000AF3B60F0
:103CD0000346FB710B46BB7113467B7147F23053B1
:103CE000BB61FB794FEA4303DAB24C4B1A704C4B81
:103CF000BA791A704B4B4FF001021A704A4B4FF0D1
:103D000000021A70494B07F108021A60484B07F18C
:103D100008021A60474B7A791A70474B4FF001023C
:103D20001A70464B4FF000021A707B79102B02D9A3
:103D30004FF000036CE04FF00003FB770DE0FB7FDA
:103D4000FA7F39688A18127807F12001CB1803F836
:103D5000182CFB7F03F10103FB77FA7F7B799A42F2
:103D6000EDD3374B1B689B889BB203F40073002B89
:103D700020D1334B1B681B889BB203F48073002B4C
:103D80000FD100BF2E4B1B681B889BB203F400733E
:103D9000002BF7D12A4B1B6818464FF001010EF09B
:103DA000ADFE274B1B6818464FF440714FF00102DF
:103DB0000EF066FF00BF204B1B78DBB2002B06D055
:103DC000BB6903F1FF33BB61BB69002BF3D1BB6956
:103DD000002B0FD11B4B1B889BB203F101039AB23E
:103DE000184B1A80164B1B68184600F08FFB4FF0DB
:103DF00000030DE0114B1B78DBB2002B0CBF00233E
:103E00000123DBB283F00103DBB203F00103DBB279
:103E1000184607F12007BD4680BD00BF04040020FE
:103E20000504002007040020080400200C040020E2
:103E300010040020060400200304002002040020D7
:103E4000FC0300200004002080B582B000AF1346C0
:103E50000246FA710A46BA717B71F979BA7907F1AB
:103E60000503084611464FF00102FFF72DFF0346F8
:103E7000184607F10807BD4680BD00BF80B584B075
:103E800000AF3B600346FB710B46BB7113467B7171
:103E900047F23053FB60FB794FEA4303DAB23D4B04
:103EA0001A703D4BBA791A703C4B4FF000021A70F1
:103EB0003B4B4FF001021A703A4B3A681A603A4B8A
:103EC0003A681A60394B7A791A70394B4FF001020F
:103ED0001A70384B4FF000021A70374B1B689B88E2
:103EE0009BB203F40073002B20D1334B1B681B885B
:103EF0009BB203F48073002B0FD100BF2E4B1B68C5
:103F00001B889BB203F40073002BF7D12A4B1B686C
:103F100018464FF001010EF0F1FD274B1B681846C3
:103F20004FF440714FF001020EF0AAFE00BF204B8B
:103F30001B78DBB2002B06D0FB6803F1FF33FB607C
:103F4000FB68002BF3D1FB68002B0FD11B4B1B88A8
:103F50009BB203F101039AB2184B1A80164B1B68EF
:103F6000184600F0D3FA4FF000030DE0114B1B7818
:103F7000DBB2002B0CBF00230123DBB283F0010373
:103F8000DBB203F00103DBB2184607F11007BD46B0
:103F900080BD00BF040400200504002007040020A9
:103FA00008040020100400200C0400200604002057
:103FB0000304002002040020FC0300200004002071
:103FC000B0B582B000AF724B1B689B8A9BB2FB718D
:103FD000FB7903F00103002B57D06D4B1B686C4A33
:103FE0001268128892B222F4006292B21A80684B70
:103FF0001B6818464FF001010EF0C0FD654B4FF0F5
:1040000000021A70644B1B78DBB2002B27D0634B85
:104010001B78002B04D1624B1B78DBB2FF2B1ED127
:104020005E4B4FF001021A705E4B1B78DBB2022B25
:1040300009D1574B1B68564A1268128892B242F453
:10404000006292B21A80524B1A68574B1B78DBB24F
:10405000104619464FF001020EF054FE21E24C4B7F
:104060001A68514B1B78DBB2104619464FF000021C
:104070000EF048FE4A4B1B78DBB2FF2B00F010829B
:10408000444B4FF0FF021A700AE2FB7903F002037F
:10409000002B00F08D80FFF777FD424B1B78DBB2E1
:1040A000012B2CD13C4B1B78DBB2002B27D03B4B98
:1040B0001B78002B23D0364B1B6818464FF00001AD
:1040C0000EF05CFDFFF760FD314B1B681B8B9BB254
:1040D000DBB2BB712E4B1B6818464FF001010EF08E
:1040E0002DFD324B4FF001021A70294B1B68184608
:1040F0004FF480614FF001020EF0C2FDD1E1244B7C
:104100001B681B8B9BB2DBB2BB71FFF73DFD254BE0
:104110001B78DBB2022B19D11F4B1B78DBB2002BB3
:1041200014D01E4B1B78002B10D0194B1B6818465F
:104130004FF000010EF022FD154B1B6818464FF49E
:1041400080614FF000020EF09BFDAAE1154B1B7839
:10415000DBB2032B12D1104B1B78DBB2002B0DD03E
:104160000E4B1B78002B09D0094B1B6818464FF4E7
:1041700080614FF000020EF083FD92E1044B1B685A
:1041800018464FF480614FF001020EF079FD88E18E
:10419000FC03002014040020080400201504002063
:1041A000050400200604002004040020160400205A
:1041B000FB7903F00403002B00F0D180864B4FF015
:1041C00001021A70854B1B78DBB2002B00F08D804A
:1041D000834B1B78002B00F08880824B1B78DBB26E
:1041E000022B41D9804B1B6818464FF000010EF09E
:1041F000C5FC7E4B1A687E4B1C7863B2D5187A4B8F
:104200001B6818460EF070FD03462B70234603F121
:104210000103DAB2764B1A70734B1B6818464FF0E5
:1042200001010EF08BFC6C4B4FF001021A706F4BCA
:104230001A686F4B1C7863B2D5186B4B1B68184615
:104240000EF052FD03462B70234603F10103DAB250
:10425000674B1A70644B1B6818464FF480614FF02F
:1042600001020EF00DFD70E05B4B1B78002B07D0B8
:104270005D4B1B6818464FF001010EF05FFC06E035
:10428000594B1B6818464FF001010EF037FC574B95
:104290001A68574B1C7863B2D518534B1B681846E5
:1042A0000EF022FD03462B70234603F10103DAB220
:1042B0004F4B1A704D4B1A684D4B1C7863B2D51892
:1042C000494B1B6818460EF00FFD03462B70234622
:1042D00003F10103DAB2464B1A70454B1B7803F128
:1042E0000103DAB2424B1A702FE03D4B1B78002BD2
:1042F00004D1404B1B78DBB2002B1AD0364B1B7815
:10430000002B07D0384B1B6818464FF001010EF008
:1043100015FC06E0344B1B6818464FF001010EF007
:10432000EDFB334B1B7803F10103DAB2304B1A700B
:104330000BE02D4B1B6818464FF001010EF0DEFB21
:10434000274B4FF001021A70FFE700BF264B1B6896
:104350001B889BB203F48073002BF7D1A1E0FB799B
:1043600003F04003002B47D0204B1A68204B1C78E9
:1043700063B2D5181C4B1B6818460EF0B5FC0346FB
:104380002B70234603F10103DAB2194B1A70154B57
:104390001B78DBB21A46164B1B785BB203F10303A2
:1043A0009A4208D1104B1B6818464FF480614FF0B9
:1043B00000020EF065FC0B4B1B78DBB21A460C4B6F
:1043C0001B785BB29A426CD1094B1B7803F1010355
:1043D000DAB2074B1A7064E01604002008040020CB
:1043E0001504002006040020FC0300201004002017
:1043F0001404002007040020FB795BB2002B50DA84
:10440000394B1B785BB2B3F1FF3F25D0374B1968AE
:10441000374B1868344B1B785AB282181278D2B2D4
:1044200003F10103D8B2304B1870084611460EF064
:104430004BFC304B1B78DBB21A462B4B1B785BB224
:104440009A422ED1294B1B6818464FF480614FF0D9
:1044500000020EF015FC24E0234B1B7803F101034E
:10446000DAB2214B1A70214B1A68234B1B78DBB24E
:10447000104619460EF028FC204B1B78DBB2002BAF
:1044800004D11C4B1B78DBB2002B0AD1174B1B68E5
:1044900018464FF480614FF000020EF0F1FB00E08F
:1044A00000BF114B1B785AB2124B1B78DBB203F1E1
:1044B00001039A4214D1124B4FF000021A70114BB3
:1044C0001B78002B08D0094B1B6818464FF440712D
:1044D0004FF000020EF0D4FB0B4B4FF000021A70AD
:1044E00007F10807BD46B0BD14040020FC030020FE
:1044F0000C0400200604002005040020080400200D
:1045000015040020160400200304002080B588B0A4
:1045100000AF78604FF440633B834FF00203BB76FB
:104520004FF01C03FB7607F118032D4819460DF0D8
:10453000AFFE2C4B7A681A6000F064F8294B1B68B8
:1045400018460EF05FF907F1080318460EF054FA0A
:10455000244B1B6818464FF440714FF000020EF0D8
:104560008FFB4FF00003BB814BF6FF73FB814FF4D1
:104570008043BB821C4BBB601A4B1B6818464FF034
:1045800001010EF05BFA174B1A6807F10803104699
:1045900019460EF05FF94FF4A0600BF069FF4FF081
:1045A00022033B774FF000037B774FF00003BB778C
:1045B0004FF00103FB7707F11C0318460BF06AFF6D
:1045C0004FF021033B774FF000037B7707F11C038B
:1045D00018460BF05FFF07F12007BD4680BD00BF06
:1045E000000C0140FC030020801A060080B400AFDC
:1045F000034B1B889BB21846BD4680BC704700BF6A
:104600000004002080B582B000AF4FF440633B80CF
:104610004FF00203BB704FF01403FB703B4633486E
:1046200019460DF035FE31484FF440610DF076FF2C
:104630004FF00003FB7123E04FF00A0002F012F983
:1046400000E000BF29484FF480610DF00FFF0346E2
:10465000002BF1D025484FF480610DF06DFF4FF035
:104660000A0002F0FFF821484FF480610DF056FF78
:104670004FF00A0002F0F6F8FB7903F10103FB7139
:10468000FB79072BDDD919484FF400610DF054FF79
:104690004FF00A0002F0E6F814484FF480610DF084
:1046A0004BFF4FF00A0002F0DDF810484FF4806134
:1046B0000DF034FF4FF00A0002F0D4F80B484FF42D
:1046C00000610DF02BFF4FF440633B804FF002037D
:1046D000BB704FF01C03FB703B46044819460DF0BD
:1046E000D7FD07F10807BD4680BD00BF000C0140A3
:1046F00080B584B000AF78600B467B804FF0190026
:1047000002F0C4F807F10F034FF068004FF00F01FB
:104710004FF00102FFF7B2FBFB7BD32B02D04FF02F
:10472000000328E07B68164A1A607B68154A5A60C5
:104730007B68154A9A607B68154A1A617B884E2B04
:104740000DD05D2B10D0362B04D0104B4FF0000253
:104750001A700EE00D4B4FF040021A7009E00B4B3F
:104760004FF080021A7004E0084B4FF0C0021A703C
:1047700000BF4FF00103184607F11007BD4680BD8A
:104780009547000845480008F9470008180400202C
:10479000DDE9A73180B582B000AF4FF0640002F0D0
:1047A00075F84FF068004FF023014FF0F002FFF76B
:1047B0004BFB0346FB71FB7983F00103DBB2002B5B
:1047C00003D04FF0030002F07BF84FF0050002F039
:1047D0005DF8084B1B7843F00F03DBB24FF0680025
:1047E0004FF020011A46FFF72FFB07F10807BD46DF
:1047F00080BD00BF1804002080B483B000AF786093
:104800007B681B889BB2C3F100039BB29AB27B68A2
:104810001A807B6803F102037A6852881A807B68E9
:1048200003F104037A6802F10402128892B2C2F121
:10483000000292B292B21A8007F10C07BD4680BC0A
:10484000704700BF80B584B000AF786007F10803FF
:104850004FF068004FF0A8014FF00602FFF70EFB83
:104860007B6803F102023B7A4FEA032399B27B7A19
:104870000B439BB21BB2002B01DA03F103034FEA97
:10488000A3039BB21380BB7A4FEA03239AB2FB7A4D
:1048900013439BB21BB2002B01DA03F103034FEA6F
:1048A000A3039AB27B681A807B6803F104023B7B06
:1048B0004FEA032399B27B7B0B439BB21BB2002BC5
:1048C00001DA03F103034FEAA3039BB2138007F15C
:1048D0001007BD4680BD00BF80B582B000AF4FF06D
:1048E0000003FB714FF06503BB71BB794FF06D00A6
:1048F0004FF0FF011A46FFF7A7FA0346FB71FB7959
:1049000083F00103DBB2002B02D04FF0000301E083
:104910004FF00103184607F10807BD4680BD00BFF0
:1049200080B584B000AF574B1B78002B1DD14FF0E2
:104930007A033B71544B1B881BB2C3F1B4034FEA9B
:10494000D372D3184FEA6303DBB27B7107F1040320
:104950004FF06D004FF0FF014FF00202FFF7B4F986
:10496000484B4FF001021A7088E0464B1B78012B30
:1049700061D14FF079033B71444B1B881BB2444A11
:1049800082FB03124FEAA2024FEAE373D31A9BB2EF
:104990001BB203F15A03002B13DB3C4B1B881BB2E9
:1049A0003B4A82FB03124FEAA2024FEAE373D31A97
:1049B0009BB21BB203F15A03B42BA8BFB423DBB2E2
:1049C00001E04FF000037B71304B5B881BB2304A33
:1049D00082FB03124FEAA2024FEAE373D31A9BB29F
:1049E0001BB203F15A03002B13DB284B5B881BB26D
:1049F000274A82FB03124FEAA2024FEAE373D31A5B
:104A00009BB21BB203F15A03B42BA8BFB423DBB291
:104A100001E04FF00003BB7107F104034FF06D009C
:104A20004FF0FF014FF00302FFF74EF9154B4FF027
:104A300002021A7022E0134B1B78022B1ED14FF09A
:104A400064033B714FF001037B71124B5B78002BC9
:104A500003D04FF00103BB7102E04FF00003BB71C4
:104A600007F104034FF06D004FF0FF014FF0030218
:104A7000FFF72AF9034B4FF000021A7007F11007F5
:104A8000BD4680BD190400203C130020B007002063
:104A9000676666665012002080B582B000AF4FF0A6
:104AA0006B033B714FF00A037B714FF00A03BB713C
:104AB00007F104034FF06D004FF0FF014FF00302C8
:104AC000FFF702F907F10807BD4680BD80B584B045
:104AD00000AF78604FF00003FB734FF00003BB732F
:104AE00007F10E034FF01C004FF00D014FF00102D3
:104AF000FFF7C4F90346FB73FB7B83F00103DBB2D2
:104B0000002B05D1BB7B2A2B05D0BB7B1A2B02D0F7
:104B10004FF000030DE07B68084A1A607B68084A82
:104B20005A607B68074A9A60BA7B074B1A704FF04D
:104B30000103184607F11007BD4680BD4D4B000824
:104B4000094C0008B54C00081A04002080B582B05A
:104B500000AF4FF02003BB804FF00203BB714FF05A
:104B60000403FB7107F10403254819460DF090FB7F
:104B70004FF01C004FF02A014FF00002FFF764F9DC
:104B80004FF01C004FF00E014FF00202FFF75CF9EE
:104B90004FF01C004FF00F014FF00302FFF754F9E4
:104BA0004FF01C004FF02B014FF01202FFF74CF9B1
:104BB0004FF01C004FF02C014FF00202FFF744F9B8
:104BC0004FF01C004FF02D014FF00102FFF73CF9B0
:104BD0004FF01C004FF02E014FF00002FFF734F9A8
:104BE0004FF01C004FF02A014FF00502FFF72CF99F
:104BF000044B4FF480721A8007F10807BD4680BD50
:104C0000000801401801002080B584B000AF786032
:104C100007F108034FF01C004FF001014FF00602AE
:104C2000FFF72CF93B7A4FEA03239AB27B7A1343BE
:104C30009BB21BB24FEAA3039BB21BB2002B01DA5B
:104C400003F103034FEAA3039AB27B681A807B68DF
:104C500003F10202BB7A4FEA032399B2FB7A0B43BA
:104C60009BB21BB24FEAA3039BB21BB2002B01DA2B
:104C700003F103034FEAA3039BB213807B6803F1A4
:104C800004023B7B4FEA032399B27B7B0B439BB22D
:104C90001BB24FEAA3039BB21BB2002B01DA03F154
:104CA00003034FEAA3039BB2138007F11007BD462D
:104CB00080BD00BF80B483B000AF78607B681B8884
:104CC0009BB2C3F100039BB29AB27B681A807B68E7
:104CD00003F102037A6802F10202128892B2C2F171
:104CE000000292B292B21A807B6803F104037A68E0
:104CF00092881A8007F10C07BD4680BC704700BF40
:104D000080B584B000AF78600B467B804FF019000F
:104D100001F0BCFD4FF068004FF015014FF00002AC
:104D2000FFF792F80346FB73FB7B83F00103DBB2D2
:104D3000002B02D04FF000033DE07B68204A1A6050
:104D40007B68204A5A607B681F4A9A607B681F4ACA
:104D5000DA607B681F4A1A617B88622B15D0622B50
:104D600004DC0A2B20D0142B19D013E0BC2B07D065
:104D7000B3F5807F0ED1164B4FF000021A7018E089
:104D8000134B4FF001021A7013E0114B4FF0020267
:104D90001A700EE00E4B4FF003021A7009E00C4B34
:104DA0004FF004021A7004E0094B4FF005021A702C
:104DB00000BF4FF00103184607F11007BD4680BD44
:104DC000D94D0008A54E0008654E0008394F00086F
:104DD000010000201844923180B582B000AF4FF03E
:104DE000190001F053FD4FF068004FF015014FF02E
:104DF0000002FFF729F80346FB71FB7983F00103FA
:104E0000DBB2002B03D04FF0030001F059FD144B2F
:104E10001B7843F01803DBB24FF068004FF0160127
:104E20001A46FFF711F84FF068004FF017014FF0E6
:104E30000002FFF709F84FF068004FF03D014FF016
:104E40000102FFF701F84FF068004FF03E014FF00C
:104E50000102FEF7F9FF07F10807BD4680BD00BF5C
:104E60000100002080B483B000AF78607B681A88AE
:104E70007B681A807B6803F102037A6852881A8083
:104E80007B6803F104037A6802F10402128892B28B
:104E9000C2F1000292B292B21A8007F10C07BD462D
:104EA00080BC704780B584B000AF786007F108031C
:104EB0004FF068004FF01D014FF00602FEF7DEFFD5
:104EC0003B7A4FEA03239AB27B7A13439BB21BB21D
:104ED000002B01DA03F103034FEAA3039AB27B68C4
:104EE0001A807B6803F10202BB7A4FEA032399B26E
:104EF000FB7A0B439BB21BB2002B01DA03F10303D5
:104F00004FEAA3039BB213807B6803F104023B7B4F
:104F10004FEA032399B27B7B0B439BB21BB2002B5E
:104F200001DA03F103034FEAA3039BB2138007F1F5
:104F30001007BD4680BD00BF80B584B000AF78606B
:104F400007F10C034FF068004FF01B014FF0020215
:104F5000FEF794FF3B7B4FEA03227B7B134303F571
:104F60004E5303F110030A4A82FB0312D2184FEA90
:104F700022224FEAE373D31A9BB203F123039BB2BD
:104F80009AB27B681A8007F11007BD4680BD00BF4A
:104F9000EBA00EEA80B588B000AFF860B9603B6066
:104FA0001346FB804FF0230001F070FC07F11D0356
:104FB0004FF068004FF075014FF00102FEF75EFF01
:104FC0000346FB77FB7F83F00103DBB2002B02D0AB
:104FD0004FF00003B2E07B7F682B02D04FF000035C
:104FE000ACE007F114034FF068004FF006014FF0FA
:104FF0000602FEF743FF7B7E03F001034FEA8303C3
:10500000DAB2FB7D03F001034FEA4303DBB2134343
:10501000DAB27B7DDBB203F00103DBB21343DBB218
:10502000BB77BB7F002B14D0BB7F012B04D1464B39
:105030004FF001021A702EE0BB7F022B04D1424BCD
:105040004FF000021A7026E04FF0050001F038FC26
:1050500021E007F11D034FF068004FF00C014FF005
:105060000102FEF70BFF7B7F03F00F03BB77BB7FD3
:10507000002B04D14FF0050001F022FC0BE0BB7FB8
:10508000042B04D1304B4FF001021A7003E02E4B79
:105090004FF000021A70FB682C4A1A60FB682C4A19
:1050A0005A60FB682B4A9A60BB682B4A1A60BB683F
:1050B0002A4A5A60BB682A4A9A60BB682A4A1A611F
:1050C0003B68002B03D0204B1A783B681A70FB8892
:1050D000142B22D0142B04DC052B28D00A2B21D032
:1050E00016E0BC2B0AD0B3F5807F02D0622B0AD029
:1050F0000EE01C4B4FF000021A701DE0194B4FF0F0
:1051000001021A7018E0174B4FF002021A7013E0F8
:10511000144B4FF003021A700EE0124B4FF00402D2
:105120001A7009E00F4B4FF005021A7004E00D4BA6
:105130004FF006021A7000BF4FF00103184607F146
:105140002007BD4680BD00BF1B0400206D51000834
:10515000995100082D52000871520008215300088F
:10516000B5530008020000201844923180B400AF0B
:10517000074B1B78002B04D0064B4FF0FF021A8020
:1051800003E0044B4FF400721A80BD4680BC7047A8
:105190001B0400201801002080B584B000AF7860A7
:1051A00007F108034FF068004FF03B014FF0060293
:1051B000FEF764FE3B7A4FEA03239AB27B7A1343ED
:1051C0009BB21BB2002B01DA03F107034FEAE303A2
:1051D0009AB27B681A807B6803F10202BB7A4FEABD
:1051E000032399B2FB7A0B439BB21BB2002B01DA6B
:1051F00003F107034FEAE3039BB213807B6803F1DB
:1052000004023B7B4FEA032399B27B7B0B439BB2A7
:105210001BB2002B01DA03F107034FEAE3039BB251
:10522000138007F11007BD4680BD00BF80B485B074
:1052300000AF78607B681B88BB817B685B88FB81E3
:10524000FA897B681A807B6803F10203BA8992B2FB
:10525000C2F1000292B292B21A807B6803F1040399
:105260007A6892881A8007F11407BD4680BC70479F
:1052700080B582B000AF4FF40053BB804FF0020303
:10528000BB714FF00403FB7107F104032248194678
:105290000CF0FEFF4FF068004FF06B014FF0800202
:1052A000FEF7D2FD4FF0050001F0F0FA4FF0680074
:1052B0004FF019014FF00002FEF7C6FD4FF06800F5
:1052C0004FF06B014FF00302FEF7BEFD4FF0680098
:1052D0004FF037014FF00202FEF7B6FD0F4B1B787F
:1052E0004FF068004FF01A011A46FEF7ADFD4FF07F
:1052F00068004FF01B014FF01802FEF7A5FD4FF0BC
:1053000068004FF01C014FF01002FEF79DFD07F101
:105310000807BD4680BD00BF000C01400200002010
:1053200080B584B000AF786007F108034FF06800E3
:105330004FF043014FF00602FEF7A0FD3B7A4FEA23
:1053400003239AB27B7A13439BB21BB2002B01DA80
:1053500003F103034FEAA3039AB27B681A807B68C8
:1053600003F10202BB7A4FEA032399B2FB7A0B43A3
:105370009BB21BB2002B01DA03F103034FEAA30334
:105380009BB213807B6803F104023B7B4FEA03234B
:1053900099B27B7B0B439BB21BB2002B01DA03F16A
:1053A00003034FEAA3039BB2138007F11007BD4626
:1053B00080BD00BF80B483B000AF78607B681A887E
:1053C0007B681A807B6803F102037A6852881A802E
:1053D0007B6803F104037A6802F10402128892B236
:1053E000C2F1000292B292B21A8007F10C07BD46D8
:1053F00080BC704780B400AFBD4680BC704700BF22
:1054000080B400AFBD4680BC704700BF80B586B099
:1054100000AF78604FF00003FB744FF40053BB8182
:105420004FF00203BB734FF01003FB7307F10C0343
:10543000304819460CF02CFF2E4B4FF400525A61A5
:105440004FF00A0001F022FA07F10B034FF077004A
:105450004FF0A0014FF00102FEF710FD0346FB7470
:10546000FB7C83F00103DBB2002B02D04FF0000382
:105470003AE000F04DF84FF000037B610FE07B69EC
:10548000DBB25BB2184600F053F8034619461A4BDC
:105490007A6923F812107B6903F101037B617B6950
:1054A000072BECDD144800F06DF80346002B02D00A
:1054B0004FF0000318E07B6842F210721A807B689C
:1054C00042F210725A807B680C4A5A607B680C4A20
:1054D0009A607B680B4ADA607B680B4A1A617B68CA
:1054E0000A4A5A614FF00103184607F11807BD46F2
:1054F00080BD00BF0010014024040020F5560008C4
:10550000195700082D570008515700086557000823
:1055100080B500AF4FF077004FF01E014FF0010251
:10552000FEF792FC4FF42F6001F09CF980BD00BFA4
:1055300080B584B000AF0346FB714FF000033B73AE
:105540004FF000037B7397F9073003F15003DBB290
:105550004FEA4303DAB207F10C034FF0770011462C
:105560004FF00202FEF78AFC3B7B4FEA03239AB21C
:105570007B7B13439BB29BB2184607F11007BD46D5
:1055800080BD00BF80B487B000AF78604FF00003EB
:10559000FB604FF00103FB727B6803F10E031B8875
:1055A000DBB203F00F03BB727B6803F10E037A6872
:1055B00002F10E02128822F0FF0292B21A804FF01E
:1055C00000037B610EE07B694FEA43037A68D318DE
:1055D0001B88002B02D04FF00003FB727B6903F1A4
:1055E00001037B617B69072BEDDDFB7A002B02D089
:1055F0004FF0FF035BE04FF000037B613BE07B6912
:1056000003F00103002B0CD07B694FEA63034FEAE0
:1056100043037A68D3181B88DBB2FA685340FB60F7
:105620000DE07B694FEA63034FEA43037A68D318BE
:105630001B884FEA13239BB2FA685340FB604FF07C
:1056400008033B6110E0FB6803F40043002B03D028
:10565000FB6883F4C053FB60FB684FEA4303FB60C5
:105660003B6903F1FF333B613B69002BEBDC7B695A
:1056700003F101037B617B690F2BC0DD7B6803F1C4
:105680000E037A6802F10E021188BA7A92B20A43C6
:1056900092B21A80BA7AFB684FEA133303F00F0311
:1056A0009A4202D14FF0000301E04FF0FF035BB2DA
:1056B000184607F11C07BD4680BC704780B582B014
:1056C00000AF07F104034FF077004FF000014FF0F7
:1056D0000302FEF7D3FB3B794FEA03427B794FEAA3
:1056E00003231A43BB791343184607F10807BD4645
:1056F00080BD00BF80B500AF064B1B7803F150039F
:10570000DBB24FF0770019464FF00102FEF79CFB29
:1057100080BD00BF0300002080B500AFFFF7CEFFC3
:105720000246014B1A6080BD1C04002080B500AF0A
:10573000064B1B7803F14003DBB24FF077001946AC
:105740004FF00102FEF780FB80BD00BF0300002088
:1057500080B500AFFFF7B2FF0246014B1A6080BD73
:10576000200400202DE9F00F94B000AFF861B9617A
:105770004FF00003FB644FF00003BB64844B1A68D6
:10578000844B5B894FEA0323D11A0A464FF000038A
:10579000C7E910237F4B9B884FEA03433B614FF0DF
:1057A000000078617B4B1B8998B24FF000013B6C85
:1057B00001FB03F27B6C00FB03F3D6183B6CA3FBED
:1057C0000023F1180B464FEA43614FEAD2140C4311
:1057D0004FEAE315D7E90423121943EB0503C7E9A0
:1057E0000E236C4B5B884FEAC3331C464FF0000519
:1057F000684BD9888AB24FF00003396C03FB01F083
:10580000796C02FB01F14018396CA1FB0223C1182D
:105810000B464FEA03614FEA1220B860B8680843AC
:10582000B8604FEA2321F960D7E90223121943EB4C
:105830000503C7E90C23574B99898AB24FF000033F
:10584000396C03FB01F0796C02FB01F14118386CF3
:10585000A0FB0223C9180B464FEA43214FEAD2505E
:1058600038603868084338604FEAE35179603B6834
:1058700003F5FA63FB62FA6A40F2CF739A4236DCB0
:10588000FB6AA3F5FA63BB62BB6ABA6A02FB03F266
:1058900013464FEA83039B18BB62BB6A4FEA63035C
:1058A000FB64BB6A4FEAA303BB64FA6A3A4B9A42B1
:1058B0001DDAFB6A03F2DC53BB62BB6ABA6A02FB05
:1058C00003F3BB62BA6A13464FEAC3039B1AFA6C2E
:1058D000D318FB64BA6A13464FEA83039B184FEA56
:1058E00043039B184FEA6303BA6CD318BB64F96C8B
:1058F0000A464FEAE273D7E90E01821A61EB03030D
:10590000C7E90E23B96C0A464FEAE273D7E90C01E6
:10591000821A61EB0303C7E90C23204B19680A467E
:105920004FF00003396B03FB01F0796B02FB01F1CF
:105930004118386BA0FB0223C9180B464FEAC3215C
:105940004FEA525A41EA0A0A4FEA635BD7E90E234B
:10595000BAEB02026BEB03034FEA43414FEAD23842
:1059600041EA08084FEAE33943467B62FB69002BB2
:1059700002D0FB697A6A1A60BB69002B02D0BB694E
:10598000FA6A1A6007F15007BD46BDE8F00F70478C
:105990001C0400202404002024FAFFFF200400201F
:1059A00080B586B000AF7860396007F10C03184607
:1059B0000EF0F0FC3B689BB203F1FF339BB23B82DD
:1059C0000D4B1A680D4BA3FB02134FEA93439BB296
:1059D00003F1FF339BB2BB814FF000037B824FF09A
:1059E0000003FB8107F10C03786819460EF05AF9A1
:1059F00007F11807BD4680BD3802002083DE1B4337
:105A000080B584B000AF0346FB71FB793B734FF068
:105A100000037B734FF00103BB734FF00103FB7373
:105A200007F10C0318460AF035FD07F11007BD46D3
:105A300080BD00BF80B586B000AF786013460A46CF
:105A4000FA703B8007F1080318460EF0C1FC4FF0D6
:105A500070033B814FF001037B814FF00003BB815A
:105A60003B88FB814FF002033B824FF48073BB8283
:105A7000FB780C2B4CD801A252F823F0B15A000845
:105A8000115B0008115B0008115B0008C95A00088F
:105A9000115B0008115B0008115B0008E15A000867
:105AA000115B0008115B0008115B0008F95A00083F
:105AB00007F10803786819460EF072F978684FF01C
:105AC00008010EF0F3FF23E007F108037868194698
:105AD0000EF0F4F978684FF008010FF003F817E0C2
