:020000040800F2
:1000000000500020994C00083D4D00081582000862
:100010003D4D00083D4D00083D4D0008000000002A
:100020000000000000000000000000003D4D00083E
:100030003D4D0008000000003D4D00089DBA00083D
:100040003D4D00083D4D00083D4D00083D4D000868
:100050003D4D00083D4D00083D4D0008813C000825
:100060003D4D00083D4D00083D4D00083D4D000848
:100070003D4D00083D4D000815BD00083D4D0008F0
:100080003D4D00083D4D00083D4D00083D4D000828
:100090003D4D00083D4D00083D4D0008853C0008E1
:1000A0003D4D00083D4D00083D4D0008C14A000887
:1000B000194B0008254B0008314B0008DDB600083D
:1000C0008DBA0008E1B6000889BA00083D4D000865
:1000D0003D4D00083D4D000805C000083D4D00089D
:1000E000153800083D4D00083D4D00080000000097
:1000F0000000000000000000000000000000000000
:0C01000000000000000000005FF808F1A3
:1001100010B5054C237833B9044B13B10448AFF341
:1001200000800123237010BD900500200000000016
:1001300058F8000808B5064B1BB106480649AFF34E
:1001400000800648036813B1054B03B1984708BD0A
:100150000000000058F800089405002090050020D9
:100160000000000000B540F6D87320F00042C3F64E
:1001700049739A4283B0014615DDB2F1FF4F03DBAC
:1001800002F03AFB03B000BD694600F09FFB00F0AF
:100190000302012A009801990ED0022A07D082B9E1
:1001A00000F096FFEEE7002100F092FFEAE700F092
:1001B0008FFF00F10040E5E701F086FB00F1004011
:1001C000E0E7012201F080FBDCE700BF00B540F66C
:1001D000D87320F00042C3F649739A4283B00146B7
:1001E00016DDB2F1FF4F03DB02F006FB03B000BDEA
:1001F000694600F06BFB00F00300012815D00228CF
:100200000BD0B8B900980199012201F05DFBEDE730
:100210000021002201F058FBE8E700980199012233
:1002200001F052FB00F10040E0E70098019900F076
:100230004FFFDBE70098019900F04AFF00F1004012
:10024000D4E700BF70B58AB0064600F00BF9224D26
:10025000044695F90030013303D0304601F02EFDFD
:1002600010B920460AB070BD304601F0D7FC4FF0FF
:100270007E5102F087FD0028F3D001230093174B35
:10028000304601930023089301F04CFF02460B46D1
:100290001348CDE90423CDE9022301F0D3FD95F9FC
:1002A0000030CDE90601022B0BD0684601F0C8FDF5
:1002B00038B1089B53B9DDE9060102F049FA04465A
:1002C000CFE702F0DDFD21230360F2E702F0D8FD65
:1002D000089B0360EFE700BF000000203CF8000827
:1002E00044F8000800F04ABA70B58AB0064600F03B
:1002F00095FC224D044695F9003001332CD0304650
:1003000001F0DCFC40B33046002102F01DFD18B3C3
:10031000012300931A4B304601930023089301F008
:1003200001FF2C78CDE90401CDE90201BCB1002028
:10033000002102460B4602F073F8022CCDE90601BB
:1003400011D102F09DFD21230360089B8BB9DDE9EB
:10035000060102F0FDF9044620460AB070BD0022F5
:100360000023CDE90623684601F06AFD0028ECD1A0
:10037000E7E702F085FD089B0360E8E70000002046
:1003800048F800082DE9D0438AB08046894600F03D
:100390009BFC314C064694F900300F4601332FD0B8
:1003A0004046494601F0B4FC50B34046494600225D
:1003B000002302F09BF918BB284B247801930023FB
:1003C0000893CDE90289CDE90489F4B10023002224
:1003D000CFF6F073CDE906234046494600220023BC
:1003E00002F05CF9D0B102239C42009329D0684608
:1003F00001F026FD002824D0089BEBB9DDE9066753
:10040000304639460AB0BDE8D0834FF6FF734FF04F
:100410006042CCF2EF73CDE90623DDE70123022C25
:10042000009313D0684601F00BFD78B10C4801F041
:1004300009FDCDE90601DFE702F022FD089B03601C
:10044000DCE702F01DFD22230360D5E702F018FD72
:1004500021230360EAE700BF0000002050F80008F5
:1004600044F800082DE9F04720F00045B5F17E5F23
:100470000446064600F0FD8000F3D580B5F17C5FB0
:1004800010DAB5F1485F80F20A814FF2CA21C7F253
:10049000491102F0B3F94FF07E5102F073FC0028CD
:1004A00040F0C880204601F0B9FB01464FF07E5075
:1004B00002F0A2F94FF07C5102F0A8FA4EF6087152
:1004C000C3F61101044602F0A1FA47F60471C3F61F
:1004D0004F2102F093F9214602F098FA41F24611B9
:1004E000C3F6245102F088F9214602F08FFA40F653
:1004F000A821C3F64E6102F081F9214602F086FA86
:100500004BF29001C3F6A66102F076F9214602F0A3
:100510007DFA4AF6AB21C3F62A6102F06FF9214653
:1005200002F074FA4CF22E61C3F69D5181462046CA
:1005300002F06CFA43F26131C3F6307102F05CF9FB
:10054000214602F063FA45F22D71C4F2010102F076
:1005500055F9214602F05AFA4DF23911C4F2190147
:1005600002F04AF9214602F051FA4FF07E5102F0B2
:1005700045F98046204600F051FB49F69913C3F631
:1005800079739D42074658DC014602F037F941462F
:100590008246484602F0EEFA0146504602F036FA2C
:1005A00027F47F6525F00F0580462946284602F08E
:1005B0002DFA0146204602F01FF929460446384626
:1005C00002F01CF90146204602F0D4FA014602F07E
:1005D00015F901464BF62E50CBF23B3002F00CF9E8
:1005E0000146404602F008F929460446284602F032
:1005F00005F9014640F6DB70C3F6497002F0FCF8DD
:100600000146204602F0F8F8014640F6DB70C3F6DA
:10061000497002F0F1F8002ED4BF00F10044044606
:100620002046BDE8F087014602F0E6F8014602F0F8
:10063000A1FA04462046BDE8F0874146484602F04C
:1006400099FA0146384602F0E1F9394602F0D6F847
:10065000014602F0D3F84BF62E51C3F23B3102F0C3
:10066000CDF8014640F6DB70C3F6C97002F0C4F85D
:10067000D1E740F6DB71C3F6C97102F0C7F94BF65A
:100680002E510546CBF23B31204602F0BFF9014620
:10069000284602F0B3F804462046BDE8F08701463C
:1006A00002F0B4F94EF60871C3F61101054602F0E6
:1006B000ADF947F60471C3F64F2102F09FF82946C1
:1006C00002F0A4F941F24611C3F6245102F094F865
:1006D000294602F09BF940F6A821C3F64E6102F0CC
:1006E0008DF8294602F092F94BF29001C3F6A6610B
:1006F00002F082F8294602F089F94AF6AB21C3F6E6
:100700002A6102F07BF8294602F080F94CF22E6152
:100710000646C3F69D51284602F078F943F261314E
:10072000C3F6307102F068F8294602F06FF945F21D
:100730002D71C4F2010102F061F8294602F066F958
:100740004DF23911C4F2190102F056F8294602F0AF
:100750005DF94FF07E5102F051F80146304602F04B
:1007600009FA0146204602F051F90146204602F0FE
:1007700045F804462046BDE8F08700BFF8B521F0F3
:10078000004620F00044B4F1FF4FD8BFB6F1FF4F50
:100790000346054645DCB1F17E5F4CD08F1707F06C
:1007A000020747EAD0774CB9022F3FD0032F03D17D
:1007B00040F6DB73CCF249031846F8BD36B3B6F108
:1007C000FF4F55D0B4F1FF4F20D0A41BE4153C2CB3
:1007D000C4BF40F6DB70C3F6C97030DD012F08BF1F
:1007E00000F10043E8D0022F33D00346002FE3D0BE
:1007F0004BF62E51C3F2BB3102F000F840F6DB712C
:10080000C4F2490101F0F8FF0346D5E740F6DB7377
:10081000002DB8BFCBF6C973CEDBC3F6C97318463B
:10082000F8BD01F0EBFF03461846F8BD40F6DB7358
:10083000C4F24903C0E7BDE8F84001F0C5B814F1BF
:100840003C0FACBF0024012414EAD1741DD0002059
:10085000C4E74BF62E51C3F2BB3101F0CFFF014686
:1008600040F6DB70C4F2490001F0C6FF0346A3E77F
:10087000B4F1FF4F10D0022FD8D0032F98D000230F
:10088000012F99D14FF0004396E702F073F901F080
:10089000C5F901F099F8A1E7022F04BF4CF6E43343
:1008A000C4F2160388D0032F04BF4CF6E433CCF215
:1008B000160381D040F6DB73012F18BFC3F64973CE
:1008C0007FF47AAFCBF6497376E700BF2DE9F04F9E
:1008D00040F6D87320F0004BC3F649739B4589B0AE
:1008E00005460C4640F388804CF6E333C4F2160309
:1008F0009B4525DC4FF478610028C3F6C97140F3AD
:100900004C8101F079FF4FF47D632BF00F0BC3F6A0
:10091000C9739B4505467ED044F24341C3F235710D
:1009200001F06AFF01462060284601F065FF44F2AD
:100930004341C3F2357101F05FFF012660605FE063
:100940004FF47863C4F249339B457FDDBBF1FF4F21
:100950005ADA4FEAEB59A9F18609ABEBC95B584665
:1009600002F01AFA01F0FEFF0346014658460593CD
:1009700001F042FF4FF0874102F048F8064602F0CE
:100980000BFA01F0EFFF014607463046069701F0EB
:1009900033FF4FF0874102F039F80021079002F051
:1009A000C9F9032688B10326384600210DF118083D
:1009B000013E02F0BFF940B158F8047D00213846ED
:1009C000013E02F0B7F90028F6D133460226009620
:1009D000904E05A821464A46019600F055FC002D90
:1009E00006460DDA94E80C0002F1004203F10043E0
:1009F00022606360464203E00023206000264B60D3
:100A0000304609B0BDE8F08F014601F0F5FE002642
:100A100060602060F4E74FF48841C3F2357101F063
:100A2000EBFE4AF20831C2F68561054601F0E4FEAC
:100A300001462060284601F0DFFE4AF20831C2F686
:100A4000856101F0D9FE01266060D9E701F0E6F882
:100A50004FF68411C3F62271074601F0D7FF4FF01D
:100A60007C5101F0CBFE02F097F9064601F07AFFC7
:100A70004FF47861C3F6C971824601F0C7FF0146A1
:100A8000384601F0B9FE44F243418046C3F2357165
:100A9000504601F0BBFF1F2E8146494640461DDCF3
:100AA0005D4B721E53F822302BF0FF029A4215D094
:100AB00001F0A2FE074620603946404601F09CFE48
:100AC000494601F099FE002D606099DA07F1004770
:100AD00000F1004027606060764291E701F08CFEF3
:100AE0004FEAEB5BC0F3C753C3EB0B03082B07467E
:100AF0002060E1DD4FF48841C3F23571504601F0CA
:100B000085FF07463946404601F076FE039003997B
:100B1000404601F071FE394601F06EFE4AF208319E
:100B20000746C2F68561504601F070FF394601F074
:100B300063FE81464946039801F05EFEC0F3C75349
:100B4000C3EB0B0BBBF1190F07462060D8BFDDF8D4
:100B50000C80B1DD4FF42341C2F68561504601F0AF
:100B600055FF07463946039801F046FE8046414648
:100B7000039801F041FE394601F03EFE43F2321186
:100B80000746C2F28D41504601F040FF394601F060
:100B900033FE8146494640468AE701F02FFE4FF476
:100BA0007D632BF00F0BC3F6C9739B45054614D02C
:100BB00044F24341C3F2357101F020FE014620604A
:100BC000284601F019FE44F24341C3F2357101F0A9
:100BD00015FE4FF0FF36606012E74FF48841C3F214
:100BE000357101F00BFE4AF20831C2F68561054607
:100BF00001F004FE01462060284601F0FDFD4AF2A6
:100C00000831C2F6856101F0F9FD4FF0FF366060F2
:100C1000F6E600BF90D5000810D5000820F000428D
:100C2000B2F1FF4F70B50346044637D2A2B3002895
:100C30003EDBC415B2F5000F09D210F400023FD11B
:100C40005B0001321902FBD5C2F10102A41823F0A6
:100C50007F437F3C23F40003E20743F4000348BFD3
:100C60005B00002664105B00192135464FF080724E
:100C7000A8189842DEBFC0EB03038518B6185B00C6
:100C800052080139F4D113B106F001039E19761010
:100C900006F17C5606EBC454204670BD014601F0B7
:100CA000B5FE0146204601F0A9FD0446204670BD70
:100CB000014601F0A1FD014601F05CFF0446EBE7AF
:100CC0000122C3E7000000002DE9F04FB1F5801FBD
:100CD00087B004460D460B460E46A8BF4FF0000EE7
:100CE00012DA21F00043034300F0F7800029C0F23C
:100CF000A7810023C4F25033002201F067FA6FF09D
:100D0000350E04460D460B464FF6FF72C7F6EF72DE
:100D1000934247DC23F07F4727F4700707F5152639
:100D200006F6647606F480161B1586F07F5282F470
:100D30004012A3F2FF35002342EA0701C3F6F07325
:100D400000222046754401F08DF8BB1C23F470038B
:100D50000022022B05EB1656CDE900012BDC002307
:100D600001F09CFC002800F0C18000200021FEB1B1
:100D7000304601F0C5F99EA3D3E9002304460D4691
:100D800001F024FA9CA3D3E9002306460F4620462F
:100D9000294601F01BFA02460B463046394601F05F
:100DA00063F805E02046294622462B4601F05CF810
:100DB00007B0BDE8F08F4FF0804301F055F80246D0
:100DC0000B46DDE9000101F02BFBCDE902013046C5
:100DD00001F096F9CDE90401DDE9020102460B4676
:100DE00001F0F4F902460B4682468B4601F0EEF91B
:100DF00083A3D3E90023A7F5C2240D46A4F27A48C1
:100E0000044601F0E3F980A3D3E9002301F02CF8B4
:100E100022462B4601F0DAF97DA3D3E9002301F045
:100E200023F822462B4601F0D1F97BA3D3E9002316
:100E300001F01AF852465B4601F0C8F978A3D3E9ED
:100E4000002382468B462046294601F0BFF976A34F
:100E5000D3E9002301F008F822462B4601F0B6F949
:100E600073A3D3E9002300F0FFFF22462B4601F0D5
:100E7000ADF902460B465046594600F0F5FFC7F55E
:100E8000D727513747EA0807002F04460D4656DD9D
:100E900000230022C3F6E073DDE9000101F096F9BA
:100EA000DDE9002301F092F980468946002E6AD1DF
:100EB00022462B4600F0D8FFDDE9022301F086F937
:100EC00002460B464046494600F0CCFF02460B4620
:100ED000DDE9000100F0C6FF6AE7002100200022E2
:100EE0000023CCF2503101F09BFA61E7DDE90023E9
:100EF0001046194601F06AF94FA3D3E900230446CE
:100F00000D46DDE9000101F061F90B4600210246C2
:100F1000C3F6E071002000F0A5FF02460B46204614
:100F2000294601F053F904460D46002E40F0918009
:100F3000DDE9000122462B4600F094FF38E7002E41
:100F400000F0AB802AA3D3E90023DDE9040101F01E
:100F50003DF922462B4606460F46DDE9000100F02A
:100F600081FFDDE9022301F031F923A3D3E9002356
:100F700004460D46DDE9040101F028F902460B465E
:100F80002046294625E01AA3D3E90023DDE9040120
:100F900001F01CF922462B4606460F4640464946BC
:100FA00000F062FFDDE9022301F010F912A3D3E99A
:100FB000002304460D46DDE9040101F007F902466D
:100FC0000B462046294600F04FFF02460B4640469E
:100FD000494600F047FFDDE9002300F043FF0246E9
:100FE0000B463046394600F03DFFE1E6AFF30080A6
:100FF0000000E0FE422EE63F763C7935EF39EA3DCF
:1010000044523EDF12F1C23FDE03CB966446C73F37
:10101000599322942449D23F935555555555E53F50
:101020009FC678D0099AC33FAF788E1DC571CC3F5B
:1010300004FA97999999D93F555555555555D53F26
:1010400002460B4600F00EFF0022002301F0E8F9F3
:10105000AEE6304601F054F819A3D3E90023064662
:101060000F4601F0B3F818A3D3E900238046894660
:101070003046394601F0AAF802460B46204629467A
:1010800000F0F0FEDDE9002300F0ECFE02460B4626
:101090004046494600F0E6FE8AE622462B46DDE958
:1010A000000100F0DFFEDDE9022301F08FF80246C7
:1010B0000B46DDE9000100F0D5FE79E6AFF30080D4
:1010C0000000E0FE422EE63F763C7935EF39EA3DFE
:1010D0002DE9F84320F00046B6F1485F05460F467B
:1010E0005BDA01F059FE002800F0CA802946284644
:1010F00001F08CFC4DF24E71CAF64751044601F0E6
:1011000085FC47F2F641C3F20F1101F077FB21464F
:1011100001F07CFC4FF27C21C3F2934101F06CFBA7
:10112000214601F073FC40F60151C3F2D07101F089
:1011300065FB214601F06AFC40F66131C3F6B62139
:1011400001F05AFB214601F061FC4AF6AB21C3F6DF
:101150002A5101F053FB214601F058FC80462046FD
:101160004FF07C5101F052FC41460646204601F00A
:101170004DFC39460446284601F048FC014620460D
:1011800001F03AFB0146304601F036FB01464FF0D4
:101190007E5001F031FBBDE8F883014601F036FCDA
:1011A0004DF24E71CAF64751044601F02FFC47F24A
:1011B000F641C3F20F1101F021FB214601F026FC9C
:1011C0004FF27C21C3F2934101F016FB214601F05E
:1011D0001DFC40F60151C3F2D07101F00FFB214616
:1011E00001F014FC40F66131C3F6B62101F004FBB6
:1011F000214601F00BFC4AF6AB21C3F62A5101F05F
:10120000FDFA214601F002FC49F69913C3F69963F1
:101210009E428046A3DD0023C3F648739E4227DC2E
:1012200006F17F464FF07E50314601F0E5FA8146E7
:1012300020464FF07C5101F0E9FB314601F0DCFA29
:1012400041460646204601F0E1FB39460446284661
:1012500001F0DCFB0146204601F0CEFA01463046A3
:1012600001F0CAFA0146484601F0C6FABDE8F88323
:101270004FF000090026C3F63879C3F69066D7E729
:101280004FF07E50BDE8F8832DE9F04F151DD41EB8
:1012900048BF2C46E410DDB024EAE4740A930B94B2
:1012A000B74B669C0B9E53F824300A9C0793F3437C
:1012B000079E013C02EBC30314EB060802940746A9
:1012C0000891069316D40B9A679B151B08F1010829
:1012D0004FEA8808002420AE03EB85090020002D8A
:1012E00003DB59F8040001F03DFB305104340135B3
:1012F0004445F3D1079C002C26DB079EDDF828A08F
:101300000DF5907808EB860B0DF58E794FEA8A087B
:10131000029A0025002A11DB20AB03EB8A06002489
:101320000025385956F8041D01F070FB0146284687
:1013300001F064FA043444450546F2D149F8045FEB
:10134000D9450AF1010AE3D1DDF81C904FEA89047E
:101350005CAE3319B9F1000F019453F8504C23DD02
:10136000019A0BAD48AEB61805EB020A4FF06E516C
:10137000204601F04BFB01F00FFD01F0F3FA4FF0B6
:101380008741804601F042FB0146204601F034FAD5
:1013900001F002FD414645F8040F56F8040D01F036
:1013A0002DFA55450446E1D10699204600F0E8FCA7
:1013B0004FF07851044601F029FB00F033FC4FF068
:1013C000824101F023FB0146204601F015FA044654
:1013D00001F0E2FC064601F0C5FA0146204601F0A4
:1013E0000BFA069B0546002B40F31C8109F1FF33E5
:1013F0000CAC069A54F82310C2F1080451FA04F216
:1014000012FA04F4DDF818E0091BCEF1070041FAE6
:1014100000FBB6180CAA42F82310BBF1000F31DD17
:1014200001360024B9F1000F17DD019A0CAB9918B1
:10143000002407E0C2F5807012B143F8040C0124C7
:101440008B420AD053F8042B002CF3D0C2F1FF02D8
:1014500001248B4243F8042CF4D1069B002B0DDDB4
:10146000012B00F0E880022B08D109F1FF330CA812
:1014700050F8232002F03F0240F82320BBF1020F76
:1014800000F080802846002101F054FC002800F084
:101490009380079A09F1FF34A24211DC019A0DF101
:1014A000300E0EEB0203079A0EEB8200002253F877
:1014B000041D834242EA0102F9D1002A40F0D4809F
:1014C000079B0CAC5A1E54F82230002B40F0CA8007
:1014D00004EB8202012352F8041D01330029FAD0E3
:1014E0004B4409F1010A9A45099346DC029A0A9C89
:1014F0000B9E9244C9EB030220AB059304EB090356
:10150000679C09EB060B04EB8B0B019C48AE36196C
:1015100092000196059E03920A9A06EB83030AF154
:10152000010A4FF0000904934FEA82085BF8040FA8
:1015300001F018FA029C049B0025002C43F80900D6
:1015400010DB059A002402EB8A06385956F8041D70
:1015500001F05CFA0146284601F050F90434444594
:101560000546F2D1019B039C09F1040943F8045F8D
:10157000A14501930AF1010AD8D1DDF82490E5E6EE
:10158000A8D8000829464FF07E5001F035F90546ED
:10159000002C3FF477AF06994FF07E5000F0F0FB3F
:1015A0000146284601F028F905462846002101F0A9
:1015B000C1FB00287FF46DAF029609F1FF340028CB
:1015C00053D1069B2846594200F0DAFB4FF0874181
:1015D000044601F0CDFB002800F06C814FF06E5105
:1015E000204601F013FA01F0D7FB01F0BBF94FF0F0
:1015F0008741054601F00AFA0146204601F0FCF851
:1016000001F0CAFB0CAC44F82900284601F0C4FBE9
:10161000069E09F1010908360DF1300E06964EF8C6
:10162000290035E012D109F1FF330CAC54F8233016
:101630004FEA232BF1E609F1FF330DF1300E5EF88E
:10164000232002F07F024EF8232017E74FF07C5151
:1016500001F08EFB4FF0000B00283FF413AF4FF06A
:10166000020BDDE601233BE70296069A0CAE56F824
:101670002430083A0692A14653B906EB8403A146EA
:1016800053F8041D09F1FF39083A0029F8D00692F1
:101690004FF07E50069900F073FBB9F1000F05463C
:1016A00050DBC9EB89774FEA8906BF000DF59078CA
:1016B0000CAAB044043F00249619305901F052F9A5
:1016C000294601F0A3F94FF06E5148F8040028466E
:1016D00001F09CF9043CBC420546EED109F101033E
:1016E000CDF80C90DFF8DCA1DDF81C900193002709
:1016F000B9F1000FC0F2DC80002FC0F2D9800024C5
:101700000026254601E0BD420FDC58F804105AF8C7
:10171000040001F07BF90146304601F06FF8013515
:10172000A945064604F10404EDDA5CAC04EB87033A
:1017300043F8A06C019E0137B742A8F10408D7D145
:10174000DDF80C90669A032A13D8DFE802F0996757
:1017500067180020BBF1000F59D0349A359B089EC2
:1017600002F1004203F1004300F100403260736077
:10177000B060029A02F007005DB0BDE8F08FB9F1E9
:10178000000FE6DD0DF1D00A09F1FF340AEB840405
:1017900033AB254655F80479AE6838463146009398
:1017A00001F02CF880464146384601F025F8014604
:1017B000304601F023F8009BC5F804809D42A860E4
:1017C000E8D1B9F1010FC4DD54F80479A6683846B0
:1017D000314601F013F805462946384601F00CF869
:1017E0000146304601F00AF854456560A060EBD12F
:1017F00009F1010504EB85050020083455F8041DA6
:1018000000F0FCFFA542F9D1BBF1000FA5D1089C67
:10181000349BA0602360359B6360AAE70023B9F185
:10182000000F0DDB34AD09F10104002305EB840446
:10183000184654F8041D00F0E1FFAC42F9D103460C
:1018400003F10042BBF1000F00D11A46089E349804
:101850003260194600F0D0FFB9F1000F08DD34AC5A
:1018600004EB890954F8041F00F0C8FF4C45F9D176
:10187000BBF1000F01D000F10040089A506078E7FA
:101880000020B9F1000F0BDB34AD09F10104002099
:1018900005EB840454F8041D00F0B0FFAC42F9D10C
:1018A000BBF1000F01D000F10040089C206060E710
:1018B00000263AE7204601F06FFA0CA941F829000A
:1018C000E6E600BFB4D800082DE9F84320F0004355
:1018D000B3F1485F04460D46904603DA01F05CFA26
:1018E000002859D02146204601F090F821460646AE
:1018F00001F08CF84CF6D311C2F62E710746304633
:1019000001F084F842F63471C3F2D72100F074FF7D
:10191000314601F07BF84EF61B71C3F2386100F0DE
:101920006DFF314601F072F840F60151C3F65011D7
:1019300000F062FF314601F069F848F68901C3F60C
:10194000084100F05BFF8146B8F1000F27D0284620
:101950004FF07C5101F05AF849468046384601F074
:1019600055F80146404600F047FF314601F04EF879
:10197000294600F041FF4AF6AB210546C3F62A612D
:10198000384601F043F80146284600F037FF01468B
:10199000204600F031FF04462046BDE8F8830146AA
:1019A000304601F033F84AF6AB21C3F62A6100F065
:1019B00023FF394601F02AF80146204600F01EFFB9
:1019C00004462046BDE8F8832DE9F04120F00045AB
:1019D000B5F1A14F044606460EDBB5F1FF4F00F30B
:1019E000A18040F6DB740028C8BFC3F6C97440F379
:1019F000DD802046BDE8F0814FF6FF73C3F6DF635C
:101A00009D4200F3A480B5F1445FC0F292804FF094
:101A1000FF372146204600F0F9FF0146804600F0DE
:101A2000F5FF46F6D711C3F68541054600F0EEFFF7
:101A30004DF65921C3F64B5100F0E0FE294600F067
:101A4000E5FF46F63531C3F6885100F0D7FE29464A
:101A500000F0DCFF42F66E61C3F6BA5100F0CEFE34
:101A6000294600F0D3FF44F62511C3F6126100F0B9
:101A7000C5FE294600F0CAFF4AF6AB21C3F6AA61AB
:101A800000F0BCFE414600F0C1FF4AF22121CBF636
:101A900015518046284600F0B9FF4FF26B11C3F68E
:101AA0006E5100F0A9FE294600F0B0FF48F2957192
:101AB000C3F69D5100F0A0FE294600F0A7FF48F6AE
:101AC0003861C3F6E35100F097FE294600F09EFF0F
:101AD0004CF6CD41C3F64C6100F08EFE294600F075
:101AE00095FF7B1C014655D04B4D404600F086FECD
:101AF000214600F08BFF05EB8703196900F07CFE9F
:101B0000214600F079FE014655F8270000F074FEEA
:101B1000002EB8BF00F10044FFF66BAF044620462C
:101B2000BDE8F081014600F069FE04462046BDE8AC
:101B3000F0814FF2CA21C7F2491100F05FFE4FF069
:101B40007E5101F01FF900283FF461AF51E700F02A
:101B500065F84FF6FF73C3F697739D4204464FF640
:101B6000FF7326DCC3F62F739D4244DC014600F070
:101B700045FE4FF07E5100F03FFE4FF0804105469C
:101B8000204600F03BFE0146284600F0F3FF002708
:101B900004463EE7404600F031FE214600F036FFA5
:101BA0000146204600F028FE044622E7CBF6C97421
:101BB0001FE7C4F21B039D4214DC4FF07F5100F07D
:101BC0001BFE4FF07F510546204600F01FFF4FF0EF
:101BD0007E5100F013FE0146284600F0CBFF02279D
:101BE000044616E700202146CBF6807000F0C2FFC5
:101BF000032704460DE74FF07E5100F0FDFD4FF046
:101C00007E510546204600F0F9FD0146284600F0C9
:101C1000B1FF01270446FCE6E0D8000820F00040B0
:101C2000704700BF2DE9F04120F00046F50D7F3DE3
:101C3000162D014604461ADC002D804620DB4FF6A7
:101C4000FF77C0F27F072F4107420DD04FF2CA2124
:101C5000C7F2491100F0D2FD002101F093F810B352
:101C6000002C24DB28EA07010846BDE8F081B6F124
:101C7000FF4FF9D300F0C2FD01460846BDE8F081F0
:101C80004FF2CA21C7F2491100F0B8FD002101F05E
:101C900079F840B10021002CE6DACBF68071002EF5
:101CA00008BF2146E0E721460846BDE8F0814FF431
:101CB000000353FA05F504EB0508D3E7002818BF25
:101CC000B0F1004F01D10220704700F1FF42A0F5B2
:101CD0000003B3F1FE4F28BFB2F1FE4F01D2042042
:101CE000704700F100424FF6FE73013AC0F27F03E5
:101CF000411E994288BF9A4201D80320704710F5CF
:101D0000000F18BFB0F1FF4F14BF00200120704733
:101D100050EA010210B40B4602D1022010BC7047F9
:101D2000D0F1010138BF0021B3F1004F08BF0028F6
:101D3000F3D003F1FF444FF6FF7204F5E004C7F659
:101D4000DF72A3F58010904288BF944201D804202E
:101D5000E4E703F100420320B3F5801F28BFB2F58A
:101D6000801FDBD30022C7F6F07213F5801F18BF67
:101D7000934214BF0023012301EA0300CEE700BF12
:101D800010B50C4630F000410346024627D0B1F1B1
:101D9000FF4F26D2B1F5000F29D3C90D0919FE292D
:101DA000C8BF194633DC0029C4BF22F0FF4242EA13
:101DB000C15314DC11F1160F37DA4CF25032944251
:101DC000194624DC44F26020C0F6A25000F040F82E
:101DD00044F26021C0F6A25100F018FE03461846F6
:101DE00010BD014600F00AFD0346184610BD4FF035
:101DF000984100F00BFE43F6B042CFF6FF729442DA
:101E00000346E5DBC0F3C75102461939C6E74FF276
:101E1000CA20C7F2491000F01BF84FF2CA21C7F2DE
:101E2000491100F0F3FD0346D9E7193122F0FF42D2
:101E300042EAC1504FF04C5100F0E8FD0346CEE7B6
:101E40000020704700210020C7F6F871704700BFDE
:101E500001F0004120F000400843704781F000414C
:101E600002E000BF83F0004330B54FEA41044FEA7F
:101E7000430594EA050F08BF90EA020F1FBF54EA1A
:101E8000000C55EA020C7FEA645C7FEA655C00F0B6
:101E9000E2804FEA5454D4EB5555B8BF6D420CDD87
:101EA0002C4480EA020281EA030382EA000083EA0A
:101EB000010180EA020281EA0303362D88BF30BDAA
:101EC00011F0004F4FEA01314FF4801C4CEA113100
:101ED00002D0404261EB410113F0004F4FEA03335F
:101EE0004CEA133302D0524263EB430394EA050FEA
:101EF00000F0A780A4F10104D5F1200E0DDB02FA59
:101F00000EFC22FA05F2801841F1000103FA0EF2EC
:101F1000801843FA05F359410EE0A5F120050EF1B2
:101F2000200E012A03FA0EFC28BF4CF0020C43FAE3
:101F300005F3C01851EBE37101F0004507D54FF0F0
:101F4000000EDCF1000C7EEB00006EEB0101B1F540
:101F5000801F1BD3B1F5001F0CD349085FEA300086
:101F60004FEA3C0C04F101044FEA445212F5800F91
:101F700080F09A80BCF1004F08BF5FEA500C50F12E
:101F8000000041EB045141EA050130BD5FEA4C0C11
:101F9000404141EB010111F4801FA4F10104E9D19A
:101FA00091F0000F04BF01460020B1FA81F308BF91
:101FB0002033A3F10B03B3F120020CDA0C3208DD5D
:101FC00002F1140CC2F10C0201FA0CF021FA02F138
:101FD0000CE002F11402D8BFC2F1200C01FA02F1A8
:101FE00020FA0CFCDCBF41EA0C019040E41AA2BFCD
:101FF00001EB0451294330BD6FEA04041F3C1CDA95
:102000000C340EDC04F11404C4F1200220FA04F0B4
:1020100001FA02F340EA030021FA04F345EA03015E
:1020200030BDC4F10C04C4F1200220FA02F001FA20
:1020300004F340EA0300294630BD21FA04F02946A2
:1020400030BD94F0000F83F4801306BF81F480113B
:102050000134013D4EE77FEA645C18BF7FEA655CAE
:1020600029D094EA050F08BF90EA020F05D054EA80
:10207000000C04BF1946104630BD91EA030F1EBF85
:102080000021002030BD5FEA545C05D14000494189
:1020900028BF41F0004130BD14F580043CBF01F57C
:1020A000801130BD01F0004545F0FE4141F4700162
:1020B0004FF0000030BD7FEA645C1ABF194610463D
:1020C0007FEA655C1CBF0B46024650EA013406BF3E
:1020D00052EA033591EA030F41F4002130BD00BFFD
:1020E00090F0000F04BF0021704730B54FF48064BA
:1020F00004F132044FF000054FF0000150E700BF3B
:1021000090F0000F04BF0021704730B54FF4806499
:1021100004F1320410F0004548BF40424FF0000186
:102120003EE700BF42004FEAE2014FEA31014FEAC9
:1021300002701FBF12F07F4393F07F4F81F0605118
:10214000704792F0000F14BF93F07F4F704730B587
:102150004FF4607401F0004521F0004120E700BF1A
:1021600050EA010208BF704730B54FF000050AE0A1
:1021700050EA010208BF704730B511F0004502D5A2
:10218000404261EB41014FF4806404F132045FEAA4
:10219000915C3FF4DCAE4FF003025FEADC0C18BF49
:1021A00003325FEADC0C18BF033202EBDC02C2F13F
:1021B000200300FA03FC20FA02F001FA03FE40EAD1
:1021C0000E0021FA02F11444C1E600BF70B54FF0D1
:1021D000FF0C4CF4E06C1CEA11541DBF1CEA1355B3
:1021E00094EA0C0F95EA0C0F00F0DEF82C4481EA1B
:1021F000030621EA4C5123EA4C5350EA013518BF3B
:1022000052EA033541F4801143F4801338D0A0FB27
:1022100002CE4FF00005E1FB02E506F00042E0FBD4
:1022200003E54FF00006E1FB03569CF0000F18BFDA
:102230004EF0010EA4F1FF04B6F5007F64F5407482
:1022400004D25FEA4E0E6D4146EB060642EAC62115
:1022500041EA55514FEAC52040EA5E504FEACE2E82
:10226000B4F1FD0C88BFBCF5E06F1ED8BEF1004F85
:1022700008BF5FEA500E50F1000041EB045170BD01
:1022800006F0004646EA010140EA020081EA030145
:10229000B4EB5C04C2BFD4EB0C0541EA045170BD41
:1022A00041F480114FF0000E013C00F3AB8014F1BB
:1022B000360FDEBF002001F0004170BDC4F1000404
:1022C000203C35DA0C341BDC04F11404C4F1200585
:1022D00000FA05F320FA04F001FA05F240EA0200E0
:1022E00001F0004221F0004110EBD37021FA04F616
:1022F00042EB06015EEA430E08BF20EAD37070BDD0
:10230000C4F10C04C4F1200500FA04F320FA05F02E
:1023100001FA04F240EA020001F0004110EBD37030
:1023200041F100015EEA430E08BF20EAD37070BDA0
:10233000C4F1200500FA05F24EEA020E20FA04F379
:1023400001FA05F243EA020321FA04F001F0004128
:1023500021FA04F220EA020000EBD3705EEA430E99
:1023600008BF20EAD37070BD94F0000F0FD101F0C8
:102370000046400041EB010111F4801F08BF013C01
:10238000F7D041EA060195F0000F18BF704703F03F
:102390000046520043EB030313F4801F08BF013DC6
:1023A000F7D043EA0603704794EA0C0F0CEA135582
:1023B00018BF95EA0C0F0CD050EA410618BF52EA3C
:1023C0004306D1D181EA030101F000414FF0000042
:1023D00070BD50EA410606BF1046194652EA430650
:1023E00019D094EA0C0F02D150EA013613D195EAC4
:1023F0000C0F05D152EA03361CBF104619460AD10C
:1024000081EA030101F0004141F0FE4141F4700115
:102410004FF0000070BD41F0FE4141F4780170BD05
:1024200070B54FF0FF0C4CF4E06C1CEA11541DBF6A
:102430001CEA135594EA0C0F95EA0C0F00F0A7F86C
:10244000A4EB050481EA030E52EA03354FEA013199
:1024500000F088804FEA03334FF0805545EA1313AC
:1024600043EA12634FEA022245EA111545EA106574
:102470004FEA00260EF000419D4208BF964244F10B
:10248000FD0404F5407402D25B084FEA3202B61A2A
:1024900065EB03055B084FEA32024FF480104FF4FE
:1024A000002CB6EB020E75EB030E22BFB61A754672
:1024B00040EA0C005B084FEA3202B6EB020E75EB05
:1024C000030E22BFB61A754640EA5C005B084FEA6D
:1024D0003202B6EB020E75EB030E22BFB61A75463A
:1024E00040EA9C005B084FEA3202B6EB020E75EB45
:1024F000030E22BFB61A754640EADC0055EA060E06
:1025000018D04FEA051545EA16754FEA06164FEA48
:10251000C30343EA52734FEAC2025FEA1C1CC0D1F4
:1025200011F4801F0BD141EA00014FF000004FF081
:10253000004CB6E711F4801F04BF01430020B4F142
:10254000FD0C88BFBCF5E06F3FF6AFAEB5EB030CFA
:1025500004BFB6EB020C5FEA500C50F1000041EBF7
:10256000045170BD0EF0004E4EEA113114EB5C04C4
:10257000C2BFD4EB0C0541EA045170BD41F4801197
:102580004FF0000E013C90E645EA060E8DE60CEA9F
:10259000135594EA0C0F08BF95EA0C0F3FF43BAFBC
:1025A00094EA0C0F0AD150EA01347FF434AF95EA73
:1025B0000C0F7FF425AF104619462CE795EA0C0F57
:1025C00006D152EA03353FF4FDAE1046194622E724
:1025D00050EA410618BF52EA43067FF4C5AE50EAFE
:1025E00041047FF40DAF52EA43057FF4EBAE12E7EE
:1025F0004FF0FF3C06E000BF4FF0010C02E000BFCF
:102600004FF0010C4DF804CD4FEA410C7FEA6C5CB1
:102610004FEA430C18BF7FEA6C5C1BD001B050EA54
:10262000410C0CBF52EA430C91EA030F02BF90EA3F
:10263000020F0020704710F1000F91EA030F58BFFE
:10264000994208BF90422CBFD8176FEAE37040F060
:10265000010070474FEA410C7FEA6C5C02D150EAFE
:10266000013C07D14FEA430C7FEA6C5CD6D152EAB9
:10267000033CD3D05DF8040B704700BF844610467E
:1026800062468C461946634600E000BF01B5FFF77D
:10269000B7FF002848BF10F1000F01BD4DF808ED4D
:1026A000FFF7F4FF0CBF012000205DF808FB00BF1E
:1026B0004DF808EDFFF7EAFF34BF012000205DF878
:1026C00008FB00BF4DF808EDFFF7E0FF94BF0120C5
:1026D00000205DF808FB00BF4DF808EDFFF7CEFFC6
:1026E00094BF012000205DF808FB00BF4DF808ED05
:1026F000FFF7C4FF34BF012000205DF808FB00BFD6
:102700004FEA410212F5001215D211D56FF4787319
:10271000B3EB625212D94FEAC12343F0004343EABC
:10272000505311F0004F23FA02F018BF4042704797
:102730004FF00000704750EA013005D111F0004021
:1027400008BF6FF0004070474FF00000704700BFB7
:102750004FEA4102B2F1E04324BFB3F5001CDCF1C3
:10276000FE5C0DD901F0004C4FEAC0024CEA5070FB
:10277000B2F1004F40EB830008BF20F0010070472A
:1027800011F0804F21D113F13872BCBF01F000402D
:10279000704741F480114FEA5252C2F11802C2F15F
:1027A000200C10FA0CF320FA02F018BF40F00100E0
:1027B0004FEAC1234FEAD32303FA0CFC40EA0C0092
:1027C00023FA02F34FEA4303CCE77FEA625307D1CF
:1027D00050EA01331EBF4FF0FE4040F44000704706
:1027E00001F0004040F0FE4040F40000704700BFA0
:1027F00080F0004002E000BF81F0004142001FBFB6
:102800005FEA410392EA030F7FEA226C7FEA236CBE
:102810006AD04FEA1262D2EB1363C1BFD2184140B3
:1028200048404140B8BF5B42192B88BF704710F049
:10283000004F40F4000020F07F4018BF404211F0EC
:10284000004F41F4000121F07F4118BF494292EA54
:10285000030F3FD0A2F1010241FA03FC10EB0C0080
:10286000C3F1200301FA03F100F0004302D549420D
:1028700060EB4000B0F5000F13D3B0F1807F06D3BA
:1028800040084FEA310102F10102FE2A51D2B1F1B2
:10289000004F40EBC25008BF20F0010040EA0300A7
:1028A0007047490040EB000010F4000FA2F1010254
:1028B000EDD1B0FA80FCACF1080CB2EB0C0200FADE
:1028C0000CF0AABF00EBC25052421843BCBFD0402C
:1028D0001843704792F0000F81F4000106BF80F4A6
:1028E00000000132013BB5E74FEA41037FEA226C69
:1028F00018BF7FEA236C21D092EA030F04D092F034
:10290000000F08BF0846704790EA010F1CBF002067
:10291000704712F07F4F04D1400028BF40F00040C4
:10292000704712F100723CBF00F50000704700F0E4
:10293000004343F0FE4040F4000070477FEA22620B
:1029400016BF08467FEA23630146420206BF5FEADC
:10295000412390EA010F40F4800070474FF00003DC
:1029600004E000BF10F0004348BF40425FEA000CA3
:1029700008BF704743F0964301464FF000001CE04B
:1029800050EA010208BF70474FF000030AE000BFA1
:1029900050EA010208BF704711F0004302D54042DF
:1029A00061EB41015FEA010C02BF84460146002051
:1029B00043F0B64308BFA3F18053A3F50003BCFA6C
:1029C0008CF2083AA3EBC25310DB01FA02FC634419
:1029D00000FA02FCC2F12002BCF1004F20FA02F220
:1029E00043EB020008BF20F00100704702F1200213
:1029F00001FA02FCC2F1200250EA4C0021FA02F274
:102A000043EB020008BF20EADC7070474FF0FF0C78
:102A10001CEAD0521EBF1CEAD15392EA0C0F93EA73
:102A20000C0F6FD01A4480EA010C400218BF5FEA15
:102A300041211ED04FF0006343EA501043EA511188
:102A4000A0FB01310CF00040B1F5000F3EBF490082
:102A500041EAD3715B0040EA010062F17F02FD2A86
:102A60001DD8B3F1004F40EBC25008BF20F0010069
:102A7000704790F0000F0CF0004C08BF49024CEA80
:102A8000502040EA51207F3AC2BFD2F1FF0340EA12
:102A9000C250704740F400004FF00003013A5DDC83
:102AA00012F1190FDCBF00F000407047C2F10002C4
:102AB000410021FA02F1C2F1200200FA02FC5FEAB1
:102AC000310040F1000053EA4C0308BF20EADC70FB
:102AD000704792F0000F00F0004C02BF400010F46D
:102AE000000F013AF9D040EA0C0093F0000F01F01A
:102AF000004C02BF490011F4000F013BF9D041EA3C
:102B00000C018FE70CEAD15392EA0C0F18BF93EA3D
:102B10000C0F0AD030F0004C18BF31F0004CD8D167
:102B200080EA010000F00040704790F0000F17BFEE
:102B300090F0004F084691F0000F91F0004F14D034
:102B400092EA0C0F01D142020FD193EA0C0F03D18C
:102B50004B0218BF084608D180EA010000F000408F
:102B600040F0FE4040F40000704740F0FE4040F46A
:102B7000400070474FF0FF0C1CEAD0521EBF1CEA09
:102B8000D15392EA0C0F93EA0C0F69D0A2EB030227
:102B900080EA010C49024FEA402037D04FF08053C1
:102BA00043EA111143EA10130CF000408B4238BF86
:102BB0005B0042F17D024FF4000C8B4224BF5B1A94
:102BC00040EA0C00B3EB510F24BFA3EB510340EAE2
:102BD0005C00B3EB910F24BFA3EB910340EA9C0090
:102BE000B3EBD10F24BFA3EBD10340EADC001B0100
:102BF00018BF5FEA1C1CE0D1FD2A3FF650AF8B42A4
:102C000040EBC25008BF20F0010070470CF0004CB0
:102C10004CEA50207F32C2BFD2F1FF0340EAC250DB
:102C2000704740F400004FF00003013A37E792F09C
:102C3000000F00F0004C02BF400010F4000F013AFA
:102C4000F9D040EA0C0093F0000F01F0004C02BFF5
:102C5000490011F4000F013BF9D041EA0C0195E75E
:102C60000CEAD15392EA0C0F08D142027FF47DAFF7
:102C700093EA0C0F7FF470AF084676E793EA0C0FE7
:102C800004D14B023FF44CAF08466EE730F0004CE5
:102C900018BF31F0004CCAD130F000427FF45CAF75
:102CA00031F000437FF43CAF5FE700BF4FF0FF3CE3
:102CB00006E000BF4FF0010C02E000BF4FF0010C36
:102CC0004DF804CD4FEA40024FEA41037FEA226CFF
:102CD00018BF7FEA236C11D001B052EA530C18BF21
:102CE00090EA010F58BFB2EB030088BFC81738BF86
:102CF0006FEAE17018BF40F0010070477FEA226C74
:102D000002D15FEA402C05D17FEA236CE4D15FEA6F
:102D1000412CE1D05DF8040B704700BF84460846A3
:102D20006146FFE70FB5FFF7C9FF002848BF10F164
:102D3000000F0FBD4DF808EDFFF7F4FF0CBF0120A9
:102D400000205DF808FB00BF4DF808EDFFF7EAFF33
:102D500034BF012000205DF808FB00BF4DF808EDEE
:102D6000FFF7E0FF94BF012000205DF808FB00BFE3
:102D70004DF808EDFFF7D2FF94BF012000205DF869
:102D800008FB00BF4DF808EDFFF7C8FF34BF012076
:102D900000205DF808FB00BF4FEA4002B2F1FE4F91
:102DA0000FD34FF09E03B3EB12620DD94FEA00230D
:102DB00043F0004310F0004F23FA02F018BF4042E6
:102DC00070474FF00000704712F1610F01D14202CD
:102DD00005D110F0004008BF6FF0004070474FF081
:102DE0000000704742000ED2B2F1FE4F0BD34FF0FD
:102DF0009E03B3EB126209D44FEA002343F0004371
:102E000023FA02F070474FF00000704712F1610F93
:102E100001D1420202D14FF0FF3070474FF0000065
:102E2000704700BF00210A2200F0E2BA00220A2304
:102E300000F04EBA2DE9F84F002A18BF002B1C46AF
:102E400081468A46DDF828B014BF0026012611D03D
:102E5000174603E010D06E1CBE420BD2BD196D08A0
:102E600004FB05A848464146D8470028F2DA2F4619
:102E7000BE42F3D34FF000084046BDE8F88F00BFD4
:102E800040F20803C2F200031868704770B50E4D97
:102E90000E4E761BB61007D0043D002455F8043FB3
:102EA00001349847A642F9D1094D0A4E0CF0D4FCE2
:102EB000761BB61007D0043D002455F8043F0134BA
:102EC0009847A642F9D170BD70F8000870F8000864
:102ED00070F8000874F800080F2AF0B498BF034691
:102EE00031D941EA00039B0737D10C46034615460A
:102EF0002668103D1E6066685E60A6689E60E66893
:102F00001034DE6010330F2DF2D8A2F1100424F03B
:102F10000F0402F00F021034032A00EB04032144D3
:102F200011D90E1F1D46144656F8047F043C032C8D
:102F300045F8047BF8D8141F24F00304043402F08D
:102F4000030209191B1932B1013911F8014F013A75
:102F500003F8014BF9D1F0BC70470346F4E700BF1A
:102F600010F0030F70B4034642D0002A3ED0013A5D
:102F7000CDB203E0541E002A38D0224603F8015B8C
:102F800013F0030F1C46F5D1032A29D9CDB20F2A1D
:102F900045EA052545EA054584BF2346164611D96D
:102FA000103E1D605D609D60DD6010330F2EF7D810
:102FB000A2F1100323F00F0302F00F021033032AD3
:102FC0001C440DD926461346043B032B46F8045BEC
:102FD000FAD8131F23F00303043302F00302E418AA
:102FE000C9B21AB1013A04F8011BFBD170BC704799
:102FF0000446C9E7830710B5044618BF004611D13F
:1030000023682046A3F1013222EA030313F0803F34
:1030100008D150F8043FA3F1013222EA030313F070
:10302000803FF6D003781BB110F8013F002BFBD195
:1030300000F060F8204610BDC9B270B419B124E0A8
:103040000378DBB101308207FAD103680246A3F1AD
:10305000013121EA030313F0803F08D152F8043F05
:10306000A3F1013121EA030313F0803FF6D0137876
:1030700010461BB110F8013F002BFBD170BC70470C
:103080000378A3B39942F9D001308307F8D10368DC
:1030900041EA0126A3F1013222EA030212F0803F45
:1030A00046EA06461AD17340A3F1013222EA03032D
:1030B00013F0803F03D011E012F0803F0ED150F8A2
:1030C000043FA3F1013586EA030225EA0303A2F1D6
:1030D000013413F0803F24EA0202EDD003781BB9DB
:1030E00005E04378013013B19942FAD1C6E718469A
:1030F000C4E700BF80EA0102844612F0030F4FD1FB
:1031000011F0030F32D14DF8044D11F0040F51F8B6
:10311000043B0BD0A3F101329A4312F0803F04BF6D
:103120004CF8043B51F8043B16D100BF51F8044B56
:10313000A3F101329A4312F0803FA4F101320BD186
:103140004CF8043BA24312F0803F04BF51F8043B0B
:103150004CF8044BEAD023460CF8013B13F0FF0F68
:103160004FEA3323F8D15DF8044B704711F0010F9B
:1031700006D011F8012B0CF8012B002A08BF70476C
:1031800011F0020FBFD031F8022B12F0FF0F16BF63
:103190002CF8022B8CF8002012F47F4FB3D170472B
:1031A00011F8012B0CF8012B002AF9D1704700BF50
:1031B00020F0030110F00300C0F1000051F8043BBF
:1031C00000F1040C4FEACC0C6FF000021CBF22FA95
:1031D0000CF213434FF0010C4CEA0C2C4CEA0C4C53
:1031E000A3EB0C0222EA030212EACC1204BF51F84C
:1031F000043B0430F4D013F0FF0F1FBF013013F471
:103200007F4F013013F47F0F18BF0130704700BFAC
:10321000F0B402B3114B06461F6802E0CBB1013A8D
:1032200017D016F8013B11F8015BF81840781C46DE
:1032300000F00300012808BF03F120047B1958782F
:103240002B4600F00300012808BF05F12003E01A17
:10325000E4D0F0BC70471046FBE700BF040000203C
:1032600041EA000313F0030F70B414BF00250125D9
:10327000032A94BF002505F001050B4604467DB1E5
:10328000194653F8045BA5F1013626EA050616F047
:10329000803F05D1043A032A44F8045BF0D819466C
:1032A000A2B10D78531E04F8015B224645B16BB103
:1032B00011F8015F013B02F8015B1446002DF6D1C5
:1032C00000221BB1013B04F8012BFBD170BC7047FD
:1032D0002DE9F00F454C82B024680190084605782E
:1032E0000646671997F801B001301BF0080B074636
:1032F000F5D12D2D60D02B2D04BF7578B71CD3F1DF
:10330000010038BF0020002B18BF102B07D1302D33
:1033100062D020B10823302D9A4601D00A239A4664
:10332000BBF1000F0CBF6FF000494FF00049B9FB33
:10333000FAF84FF0000C0AFB1899604617E0303D90
:10334000AB4223DD404594BF0026012656EADC7CD3
:103350002BD14D45D4BF00260126404518BF00267D
:103360001EBB0AFB00504FF0010C17F8015B6619F9
:10337000767816F0040FE2D116F0030606D0012E7F
:1033800014BF57263726AD1BAB42DBDCBCF1FF3F39
:1033900017D0BBF1000F0DD11AB1BCF1000F07D14E
:1033A000116002B0BDE8F00F70474FF0FF3CDCE762
:1033B000791EF5E74042EFE77578B71C4FF0010B37
:1033C0009DE7BBF1000F019C0CBF6FF000404FF078
:1033D000004022232360DFE73E78782E18BF582E66
:1033E00097D110237D789A46023799E70400002090
:1033F00070B440F20804C2F2000406460D4620688C
:10340000134631462A4670BC62E700BF2DE9F04101
:10341000047890B000340546334818BF012409F001
:1034200061F8324B00260093314BB44201930CBF3C
:103430002346802305934FF4807306934FF48063F3
:103440000CBF4FF001084FF00208079320230893A8
:1034500025484FF40053694609930296CDF80C8035
:1034600004960A9609F0BCF81F48012109F0D6F825
:1034700001274FF460231F480BA90D930B968DF87D
:1034800030408DF831700E968DF83C8009F094FE36
:10349000184804213A46032309F0DFFE2CB11548F1
:1034A00029780222032309F0D8FE1248012109F0ED
:1034B000B0FE1048012109F0A3FE0E4809F0B2FE4B
:1034C0000C4809F0B4FE0028FAD10A4809F0B3FE0E
:1034D000084809F0B5FE0028FAD10648012109F094
:1034E000B3FE10B0BDE8F081080002404C2401405A
:1034F000AC05002000240140024B33F8100080B2DC
:10350000704700BFAC050020704700002D4B2DE92F
:10351000F3411B780546002B36D00024A0462646F2
:1035200027460822532032216B4608F08DF99DF87A
:1035300001209DF80030013403EB02231BB29DF8FB
:103540000320FF189DF80230E4B203EB02231BB204
:10355000F6189DF805209DF80430202C03EB02237B
:103560001BB298449DF8073001D05B06D9D1164BA9
:1035700097FBF4F796FBF4F698FBF4F82F806E8037
:10358000A5F804801C701AE006226B4653203221F5
:1035900008F05AF99DF801209DF8003003EB022352
:1035A0002B809DF803209DF8023003EB02236B80F3
:1035B0009DF805209DF8043003EB0223AB80BDE8A5
:1035C000FC8100BFB0050020B105002008B5134BF9
:1035D00053201B782D2108227BB108F0FFF93121FF
:1035E0000A22532008F0FAF92C210C22532008F06B
:1035F000F5F953203821902209E008F0EFF9312144
:103600000A22532008F0EAF953202C210A2208F05C
:10361000E5F9034B40F209121A8008BDB0050020FD
:103620006804002073B5002402AB06460D4603F87B
:10363000014D53202146012208F006F978B19DF88A
:103640000730E52B0AD13278054B01201A70054B63
:103650002B60054B6B60054BAB6000E020467CBDEA
:10366000B0050020CD3500080D35000809350008EB
:10367000324B2DE9F0411C88314B5A89B3F9125075
:10368000A21A1C89ED026243B3F91440D213141933
:1036900095FBF4F41419A4F57A6202FB02F5B3F970
:1036A0000480B3F902C0B3F90E7002FB0CFC02FBFC
:1036B00008F2B3F90C802D136F4305FB08F52D14A8
:1036C00005EB62320232DD88921002F50042B3F956
:1036D00020606A43DC614FEAEC25B3F9003005EB6A
:1036E000E72505EB8305B540164B02351B68D20B69
:1036F000A3EBA5054CF2503333416B4303D45B007D
:10370000B3FBF2F302E0B3FBF2F35B0070B11A1209
:10371000524340F6DE356A430B4D5D432D1405EBF5
:10372000224202F6CF6203EB2213036021B10A2387
:103730005C43083424110C60BDE8F081E2050020F0
:10374000B8050020DC05002043E3FFFF104B07B560
:103750001B781BB90F4B1A8801321A80032201AB68
:103760007720F62108F070F89DF805209DF80430C8
:10377000120242EA03429DF806301A43064BB3F99F
:103780002030C3F10803DA40044B1A600EBD00BFBD
:10379000B2050020B4050020B8050020DC0500209B
:1037A0000B4B07B51B781BB90A4B1A8801321A80DC
:1037B000022201AB7720F62108F046F89DF805308B
:1037C0009DF8042043EA0222034B1A800EBD00BF7D
:1037D000B2050020B4050020E2050020064B0021C0
:1037E00093F82020054B9201343219707720F42190
:1037F00002F0FC0208F0F2B8B8050020B205002083
:10380000034B00221A707720F4212E2208F0E6B82C
:10381000B205002010B54FF4804009F053FE012896
:10382000044605D14FF4804009F05AFE014B1C704C
:1038300010BD00BFB20500202DE9F047DFF8BCA1A4
:103840008CB09AF800900546B9F1000F40F0C480A2
:10385000634F022610234FF40058384609A94FF44D
:1038600080448DF826608DF82730ADF8248009F06B
:103870003AFD0423384609A98DF82730ADF82440D5
:1038800009F031FD0E213046C7F8108009F0C4FD63
:103890000126082307A807948DF821308DF8209081
:1038A0008DF8226009F0D2FD28238DF828300AA86F
:1038B0000F238DF829308DF82A308DF82B6009F010
:1038C00049FC142008F01BF97720D02132460DF175
:1038D0002F0307F0B9FF9DF82F30424C0322552BE0
:1038E000E375228474D1D12132460DF12F03772064
:1038F00007F0AAFF9DF82F30772003F00F021B0975
:1039000022766376162201ABAA2107F09DFF9DF86F
:1039100004209DF80530304643EA022323809DF8B9
:1039200006209DF8073043EA022363809DF80820B3
:103930009DF8093043EA0223A3809DF80A209DF8F0
:103940000B3043EA0223E3809DF80C209DF80D30F4
:1039500043EA022323819DF80E209DF80F3043EAAD
:10396000022363819DF810209DF8113043EA022361
:10397000A3819DF812209DF8133043EA0223E381CE
:103980009DF814209DF8153043EA022323829DF808
:1039900016209DF8173043EA022363829DF8182011
:1039A0009DF8193043EA0223A38241F270738AF82A
:1039B00000602B8046F678136B800B4B6B600B4BD3
:1039C000AB600B4BEB600B4B2B610B4B6B6104E063
:1039D000C7F81480484600E001200CB0BDE8F0872D
:1039E00000100140B805002001380008A137000888
:1039F000DD3700084D37000871360008E00500206B
:103A0000254B2DE9F74F254AB3F80AC012684FEA53
:103A10000C2CCCEB020CB3F804A0B3F808B05D8812
:103A2000DA889B89894601931D4B80461C6820B328
:103A3000ACFB0201020A42EA0162ED030B125219C9
:103A4000A4FB020143F1000304FB0311460D4F15D3
:103A500046EAC126ACFB0B01C2094FEA0A4442EA1E
:103A60004162CB11121943F10003B21A67EB030351
:103A7000D20B42EA4342C8F80020B9F1000F09D046
:103A80000199ACFB0123D20D42EA432202F5FA620E
:103A9000C9F80020BDE8FE8FEC050020E8050020F5
:103AA000E405002007B5772001AB0021032207F0D1
:103AB000CBFE9DF805009DF80430000240EA03406B
:103AC0009DF8063018430EBD08B5FFF7EBFF014B1C
:103AD000186008BDE405002008B5FFF7E3FF014BBF
:103AE000186008BDE805002077204821012207F072
:103AF00075BF77205821012207F070BFF7B5434DFD
:103B0000022369464FF400568DF802300446102314
:103B100028468DF80330ADF8006009F0E4FB0A2078
:103B20006E6107F0ECFF7720A02101220DF1070361
:103B300007F08AFE002857D01E210122772007F0C7
:103B40004DFF4FF42F6007F0CFFF314FA025002627
:103B500002227720294601AB02358DF804608DF8EA
:103B6000056007F071FE9DF804209DF80530EDB268
:103B700043EA0223B02D27F8023FE9D1254900226C
:103B8000CE89012306F47F45CD81505A02320028A8
:103B900018BF0023102AF8D12BBB1E491A4612F079
:103BA000010F4FEA620004D011F8100043400820D2
:103BB00004E031F8100083EA1023F8E713F4004F13
:103BC00018BF83F4C0535B000138F7D10132102ACB
:103BD000E5D106F00F020F49C3F3033315439A42B0
:103BE000CD8102D000E00020FEBD42F210732380A0
:103BF0006380094B01206360084BA360084BE360BE
:103C0000084B2361084B6361EEE700BF00100140E1
:103C1000EA050020EC050020F33A0008D93A000834
:103C2000E93A0008C93A0008013A00080F4B10B5FC
:103C30000F48198809F0B4FB0E4C18B107F036FF95
:103C400020600CE007F032FF2368984207D90A4A47
:103C5000C31A3B21126893FBF1F39BB21380074B0D
:103C60001868BDE8104009F03BBC00BF000600200A
:103C7000000C014010060020080600200406002069
:103C8000FFF7D4BFFFF7D2BF30B52F4B85B02F4A17
:103C900010B1012817D10CE04FF4807119804FF456
:103CA000007313802A4A13602A4B09221A701722C4
:103CB00007E0188002231380254A1360254B072252
:103CC0001870254B1A70204B10241B882348ADF820
:103CD0000C3003A902238DF80F408DF80E3009F047
:103CE00002FB1A4B1D481B8803A9ADF80C300423B6
:103CF0008DF80F3009F0F7FA164B154D19780120A1
:103D000009F08AFB286809F0EBFB2B688DF8094065
:103D100001930124002301A88DF808308DF80A4092
:103D200009F094FB0C4B0E4A1B7859B203F01F03A9
:103D30009C40490942F8214007F0D0FE094B3C382D
:103D4000186005B030BD00BF0C0600200006002042
:103D5000040600200306002002060020000C01409B
:103D600000E100E0FC05002010B5044607F0B6FEB7
:103D70000B4B1A683C32904210D31860094B0A482A
:103D80001C600A4C218809F011FB0B2007F0ACFEE7
:103D900005482188BDE8104009F00ABB10BD00BFEE
:103DA000FC05002008060020000C01400C06002045
:103DB00007B5002202AB03F8012D1E200A210122C3
:103DC00007F042FD30B19DF80700A0F148035842CA
:103DD00040EB03000EBD13B5062204466B461E20C1
:103DE000032107F031FD9DF800209DF8013043EAE2
:103DF000022323809DF802209DF8033043EA02232A
:103E000063809DF804209DF8053043EA0223A380D7
:103E10001CBD0000000000002DE9F04F4FF480535E
:103E200085B0ADF80C30022303A98DF80E30824620
:103E3000042369488DF80F3009F055FA322007F055
:103E40005EFE002111221E2007F0C8FD0121402244
:103E50001E2007F0C3FD0DF10409642007F04FFE9A
:103E60004846FFF7B8FF0026DFF870B1DFF8688139
:103E70000A2735463446022101221E2007F0AEFDF6
:103E8000322007F03CFE4846FFF7A5FFBDF90420AD
:103E9000BDF90610BDF90830B6189142B8BF0A4600
:103EA000E4189A42B8BF13465B450D4409DBD8F8C5
:103EB0000C30013F83F01003C8F80C30DBD1012730
:103EC00000E000271E200021122207F087FDDFF806
:103ED0000CB1DFF804914FF00A08022101221E20E4
:103EE00007F07CFD322007F00AFE01A8FFF773FF00
:103EF000BDF90420BDF90610BDF90830B61A91428B
:103F0000B8BF0A46E41A9A42B8BF13465B45C1EBF4
:103F1000050509DBD9F80C30B8F1010883F010036E
:103F2000C9F80C30D9D100E00027002170221E20F2
:103F300007F054FD012120221E2007F04FFD1E2016
:103F40000221002207F04AFD642007F0D8FD57B394
:103F50003046FEF7D5F802460B461BA1D1E9000119
:103F6000FEF75EFAFEF7F4FB20F000462846FEF767
:103F7000C7F802460B4614A1D1E90001FEF750FA3A
:103F8000FEF7E6FB20F000452046FEF7B9F80246B2
:103F90000B460FA1D1E90001FEF742FAFEF7D8FB6C
:103FA00020F0004003E04FF07E5005460646BAF18F
:103FB000000F05D0CAF80060CAF80450CAF808001B
:103FC00005B0BDE8F08F00BF000000000094D240B3
:103FD00000000000004CD140000C014001F0FFFF48
:103FE0001FB5354C23789BB97A238DF80430334BB9
:103FF0000222B3F900306D20C3F1B40393FBF2F356
:104000008DF80530FF2101AB07F07CFC012350E067
:10401000012B37D12A4A79238DF80430B2F90030C8
:104020006FF463718B4209DB40F28D318B4207DC08
:104030000A2193FBF1F35A33DBB202E0002300E0E4
:10404000B4238DF80530B2F902306FF463729342F5
:1040500009DB40F28D32934207DC0A2293FBF2F334
:104060005A33DBB202E0002300E0B4238DF80630BF
:10407000032201AB6D20FF2107F044FC0E4B02220E
:104080001A7017E0022B15D164238DF80430012338
:104090008DF805300B4B6D205B78FF21002B14BF92
:1040A000012300238DF80630032201AB07F02AFC20
:1040B000002323701FBD00BF14060020AC12002097
:1040C000B8090020CA11002003885B42038043889E
:1040D0005B424380704713B50622044601216B46BC
:1040E0001C2007F0B1FB9DF801309DF800209DF8E1
:1040F000021043EA022242F38D02042392FBF3F200
:1041000022809DF8032042EA012242F38D0292FBB5
:10411000F3F262809DF804109DF8052042EA012226
:1041200042F38D0292FBF3F3A3801CBD13B5202351
:10413000ADF8043004230DEB0301022419488DF877
:1041400007308DF8064009F0CEF82A2100221C2005
:1041500007F044FC0E211C20224607F03FFC0F21F3
:1041600003221C2007F03AFC2B2112221C2007F00E
:1041700035FC2C211C20224607F030FC2D21012289
:104180001C2007F02BFC2E2100221C2007F026FC0F
:1041900005221C202A2107F021FC034B4FF48072DA
:1041A0001A801CBD000801406804002037B50025B6
:1041B00002AB044603F8015D1C200D21012207F02B
:1041C00043FB80B19DF807302A2B01D01A2B09D16F
:1041D000054A01202260054A6260054AA260054A3C
:1041E000137000E028463EBD2D410008D74000086E
:1041F000C94000081506002083885B428380704711
:1042000013B50222044601AB68201B2107F01CFBFA
:104210009DF804209DF8053043EA022303F54E5330
:1042200010334FF48C7293FBF2F3233323801CBDC5
:1042300013B5062204461D216B46682007F004FBD7
:104240009DF801309DF800209DF8021043EA0222FB
:1042500012B2042392FBF3F222809DF8032042EA7B
:10426000012212B292FBF3F262809DF804109DF8D5
:10427000052042EA012212B292FBF3F3A3801CBD97
:10428000192008B507F03BFC68201521002207F033
:10429000A5FB10B9032007F0C7FC0C4B16211A78B8
:1042A000682042F0180207F099FB172100226820CD
:1042B00007F094FB3D210122682007F08FFB682066
:1042C0003E210122BDE8084007F088BB38040020E9
:1042D00038B5054619200C4607F011FC6820152159
:1042E000002207F07BFB38B3144B622C2B60144B7D
:1042F0006B60144BAB60144BEB60144B2B61144B95
:104300000FD004D80A2C14D0142C0CD10DE0BC2CE6
:1043100004D0B4F5807F06D1002207E00120187098
:1043200038BD022202E0032200E004221A700120BC
:1043300038BD05221A70012038BD00BF8142000837
:1043400031420008F9410008014200081844923146
:1043500038040020044B1A78044B0AB1FF2201E014
:104360004FF400721A80704716060020680400207F
:10437000038842885B4202804380704783885B42A7
:104380008380704713B50622044643216B4668209C
:1043900007F05AFA9DF801309DF800209DF80210B0
:1043A00043EA022212B2042392FBF3F222809DF828
:1043B000032042EA012212B292FBF3F262809DF8DE
:1043C00004109DF8052042EA012212B292FBF3F399
:1043D000A3801CBD13B5062204463B216B46682012
:1043E00007F032FA9DF801309DF800209DF8021088
:1043F00043EA022212B2082392FBF3F222809DF8D4
:10440000032042EA012212B292FBF3F262809DF88D
:1044100004109DF8052042EA012212B292FBF3F348
:10442000A3801CBD13B54FF40053ADF80430042332
:104430000DEB0301022417488DF807308DF8064074
:1044400008F051FF6B218022682007F0C7FA052091
:1044500007F055FB19210022682007F0BFFA6B21F5
:104460000322682007F0BAFA37212246682007F0B5
:10447000B5FA094B1A211A78682007F0AFFA1B2108
:104480001822682007F0AAFA68201C21102207F0E1
:10449000A5FA1CBD000C0140390400202DE9F743AA
:1044A000804623200D461446994607F028FB6820D5
:1044B000752101220DF1070307F0C6F9002875D018
:1044C0009DF80770682F70D106216B4638460A4662
:1044D00007F0BAF99DF803309DF8056003F0010379
:1044E0005B0006F0010643EA86069DF8013003F002
:1044F00001031E4308D0012E01D12D4B1AE0022EDC
:104500000ED100222A4B13E00C2101220DF10703EA
:10451000384607F099F99DF8073013F00F0303D1DF
:10452000052007F081FB06E0042B214B02D101227C
:104530001A7000E01E701F4BC8F800301E4BC8F800
:1045400004301E4BC8F808301D4B2B601D4B6B60B0
:104550001D4BAB601D4B2B61B9F1000F03D0144B09
:104560001B7889F80030142C194B16D004D8052C70
:1045700017D00A2C0FD112E0BC2C07D0B4F5807FE5
:1045800002D0622C07D104E000220BE00120187059
:104590000CE0022206E0032204E0042202E00522ED
:1045A00000E006221A70012000E00020BDE8FE8332
:1045B0001606002055430008D54300087143000843
:1045C00025440008854300087D43000818449231C3
:1045D0003904002003885B42038083885B42838028
:1045E000704713B506220446A8216B46682007F0E1
:1045F0002BF99DF801309DF800209DF8021043EA48
:10460000022212B2042392FBF3F262809DF803208F
:1046100042EA012212B292FBF3F222809DF80410CA
:104620009DF8052042EA012212B292FBF3F3A38027
:104630001CBD0000642008B507F061FA6820232142
:10464000F02207F0CBF910B9032007F0EDFA0520AE
:1046500007F055FA044B68201A78202142F00F0227
:10466000BDE8084007F0BAB91706002037B5044680
:1046700019200D4607F043FA68200F2101220DF1A1
:10468000070307F0E1F89DF80730D32B18D10D4B45
:104690004E2D23600C4B63600C4BA3600C4B2361CD
:1046A0000C4B07D05D2D09D0362D01D0002202E041
:1046B000402200E080221A70012002E0C022FAE7C6
:1046C00000203EBD35460008E3450008D5450008FA
:1046D000DDE9A7311706002030B585B0044601A8F2
:1046E0000D4608F0E5FB0B4B013D1A680A4B2046CE
:1046F000B2FBF3F3013BADF8043001A90023ADF8A0
:104700000850ADF80A30ADF8063008F089FA05B067
:1047100030BD00BF7805002040420F007FB5044641
:1047200001A80D46164608F0D6FB0123ADF8083067
:104730002046002301A9ADF80450ADF80660ADF89D
:104740000A30ADF80C3008F045FC7FBD2DE9F04F84
:10475000304B1427474300011C5885B01D188A466A
:1047600020464FF6FF719346FFF7B6FF6B6802A82D
:1047700005F108090193AD6808F00AFE019B2822A3
:1047800018468DF80B2002A90222ADF808508DF8CA
:104790000A2008F0A8FD99F8045000222046294676
:1047A000FFF7BCFF2046012108F09DFB99F805307A
:1047B000DFF864808DF80C3000238DF80D3008EBA5
:1047C0000706012303A88DF80E308DF80F3008F08E
:1047D000C1FC48F807A086F80AB00C2D16D8DFE80F
:1047E00005F0071515150A1515150D1515151000E9
:1047F0002046022107E02046042104E0204608214B
:1048000001E020461021012208F087FB304605B068
:10481000BDE8F08F2CDA00082C060020114A12485F
:1048200013881180C91A038089B240F68C239942FB
:104830000E4B02D900221A707047A1F2EF2080B20D
:1048400040F2DA52904205D81A78072A9CBF0848ED
:1048500020F812101A7801321A70064B00221A80C2
:10486000704700BF780700201A06002018060020B5
:104870001C060020C40A0020154B142210B502FBB0
:10488000003202F10803DC7864B90122DA70114ABF
:10489000000199801318197B10580222BDE81040BE
:1048A000FFF73CBF9C88D980091B89B29C78118294
:1048B000094A000122F81410064A0024DC7013187B
:1048C000197B10582246FFF729FF044B1C8010BDAE
:1048D0002C0600202CDA00081C060020C40A002048
:1048E00070B50D460221044608F01BFC0128204645
:1048F0000BD1022108F020FC14226BB25343254A4D
:104900002046D65808F000FC27E0042108F009FCF6
:1049100001280ED101352046EDB2042108F00CFC2F
:1049200014226BB253431B4A2046D65808F0EFFBC3
:1049300013E00821204608F0F4FB012811D10235CC
:104940002046EDB2082108F0F7FB14226BB2534366
:10495000104A2046D65808F0DDFB01462846B047ED
:1049600070BD1021204608F0DCFB012810D1033572
:104970001021EDB2204608F0DFFB14226BB2534346
:10498000044A2046D65808F0C8FB01462846B047DE
:1049900070BD00BF2C0600202DE9F04F464BDFF81C
:1049A0001C81142505FB0035030158F8034087B02E
:1049B00008EB030607462046FFF78EFED6F804B044
:1049C00006F1080A05A8B6684FF0020908F0E0FCF5
:1049D0001823584605A98DF81730ADF814608DF8E6
:1049E000169008F080FC01A89AF8046008F069FAB3
:1049F0007023ADF804300123ADF806300023ADF884
:104A000008304FF47A73ADF80A304FF48073ADF884
:104A10000C90ADF810300C2E2BD8DFE806F0072AEA
:104A20002A2A102A2A2A192A2A2A2200204601A9DB
:104A300008F040F92046082108F078FA19E02046ED
:104A400001A908F07BF92046082108F077FA10E068
:104A5000204601A908F0B6F92046082108F078FAA6
:104A600007E0204601A908F0EFF92046082108F0E8
:104A700077FA08EB0717BB7B1BB12046012108F032
:104A80003EFA2046012108F02EFA0C2E10D8DFE85D
:104A900006F0070F0F0F090F0F0F0B0F0F0F0D0071
:104AA000343404E0383402E03C3400E040346C60DC
:104AB000284607B0BDE8F08F2C0600202CDA00084D
:104AC000022110B5124808F02CFB012810480CD127
:104AD000022108F031FB0F4B0D48D3F8A04008F03D
:104AE00013FB01460820A04710BD102108F019FB58
:104AF00001280CD11021064808F01EFB054B044884
:104B0000D3F8B44008F009FB01460920A04710BDC6
:104B1000002C01402C0600204FF080400021FFF7C0
:104B2000DFBE000001480421FFF7DABE00040040A8
:104B300001480A21FFF7D4BE000800402DE9F84FD4
:104B4000427843790446002B14BF0223002302B1AC
:104B50000133374ADFF8F49052F823A0DFF8F080F1
:104B6000344F354D00261AF80630FF2B5CD0A27862
:104B700003F00F0012B1821E012A52D9A2790AB1A4
:104B800082424ED003F0F00313F0300F03D02278AE
:104B9000002A08BF0023E27832B1627922B9A0F17D
:104BA0000802012A98BF802322792AB162791AB9B2
:104BB000021F032A98BF8023DA0605D51F49002269
:104BC000FFF7C4FD082307E0990607D51C492A789A
:104BD000FFF7BCFD2B7801332B7022E05A060FD56E
:104BE000218997F800B098FBF1F189B2FFF7D4FE64
:104BF000144B43F82B000BF1010B87F800B010E0C9
:104C00001B060ED5618999F800B098FBF1F189B2C5
:104C1000FFF7C2FE0C4B43F82B000BF1010B89F898
:104C200000B001360E2E9ED10020BDE8F88F00BFE7
:104C30000CDB000845070020440700201D48000841
:104C400079480008480700207C070020460700201C
:104C500040420F00044B1B78834204D9034B53F8A6
:104C600020305B6819807047450700204807002006
:104C7000044B1B78834204D9034B53F820305B6804
:104C800019807047460700207C070020014B33F84D
:104C9000100070471C0600201A481B49026800607B
:104CA0008A4219D0002103E0184B5B58435004316D
:104CB0001748184B42189A42F6D3174A02E00023CD
:104CC00042F8043B154B9A42F9D307F041FBFEF73B
:104CD000DDF803F0A5F9FEE7114E124830601248E6
:104CE000016821F070610160410201600F4C1820E1
:104CF00020600F490F4808600F48D0F800D0406886
:104D000000470000F04F0020EFBEADDE78F800084D
:104D10000000002090050020900500204015002094
:104D2000181002400900000004000140140C01406A
:104D3000000C01404434434400F0FF1FFEE7000034
:104D4000F8B5194C06462378274683B906F0C6FE07
:104D5000164D2B683233984209D301232370144B2C
:104D60004FF480525A6106F0B9FE2860F8BD3B78D6
:104D7000C3B106F0B3FE0D4C2368F318984211D36B
:104D8000094B00221A700A4B4FF480521A6106F048
:104D9000A5FE084B20601A780AB1013A1A70064B3A
:104DA00001221A70F8BD00BF9D070020A407002053
:104DB000000801406F0B00209E07002037B5204DF2
:104DC0008DF807302B788DF8051002A98DF8062094
:104DD0008DF80400CA1812F8042C443AD2B20A2AF8
:104DE0009ABF184931F812403224022B03D814B16B
:104DF0002046FFF7A5FF2B78022B0BD9124B1D681D
:104E000006F06CFE001B854204D20D4A002313708D
:104E10000E4A13700E4B1A781946012A00D06CB94D
:104E2000074B1A78022A01D801321A70094A002366
:104E300013700B70084B4FF480521A613EBD00BFD7
:104E40009F0700202CDB0008A40700206F0B002028
:104E50009E0700209D070020000801402DE9F04139
:104E6000434B04465A7B434B02B101221A704FF464
:104E7000007001F061F900B33F4E052096F86450D0
:104E80003E4B00FB05F21B8819B2914212DD3C4AF1
:104E90005278002A67D096F865603A4AAD1968439F
:104EA0000127814217705EDD022111705BE0354AF7
:104EB000022111700BB9334A1370102001F01CF954
:104EC00060B12B4A304B917A09B9D27A22B12C4A7F
:104ED000D27A0AB9012200E000221A70294B1B780D
:104EE000022B02D14C204E211EE0012B07D14D2177
:104EF00053204C220B46BDE8F041FFF75FBF224B29
:104F00001B78012B03D1532001464E2206E0194B9A
:104F10001B78012B04D15320014602464D23EAE7BA
:104F2000042C03D153204D210A460AE0022C03D160
:104F3000532001464D2204E0012C04D153204D2181
:104F40004E224423D7E7114B1B7823B13220BDE812
:104F5000F041FFF7F5BE0E4A13700E4B4FF480522E
:104F60001A61BDE8F081064A5278002A9FD0A1E775
:104F70002A120020A1070020E00D0020C40A002012
:104F8000CA110020A00700209C0700206F0B002002
:104F90009D0700200008014070B50646B6FBF2F4FC
:104FA0000846154614B12046FFF7F6FF05FB1464CA
:104FB000024B1B5D00F8013B70BD00BF88DC0008A0
:104FC0002DE9F84F037804460130202BFAD0092B45
:104FD000F8D02D2B05D104464FF0000ADFF878B148
:104FE00006E02B2BDFF86CB108BF04464FF0000A37
:104FF0004FF000084FF0000912E00022544B4046E9
:105000004946FDF7E3F8064628460F46FDF778F8CF
:1050100002460B4630463946FCF726FF8046894655
:10502000234614F8012BA2F13005E9B20929E4D98D
:105030002E2A21D11A460026454F16E0FDF760F8CA
:1050400032463B46FDF7ECF902460B4640464946E0
:10505000FCF70AFF002280468946304639463C4B21
:10506000FDF7B4F8224606460F465078541C3038F7
:10507000C2B2092A2346E1D91A78652A01D0452A05
:105080004DD15A782D2A02D10233012505E02B2A71
:1050900001D0013300E00233002500240A2102E0A0
:1050A00001FB0424303C13F8012BA2F13000092845
:1050B000F6D9B4F59A7F28BF4FF49A740022254B95
:1050C00009E0104619461EA3D3E90023FDF77EF838
:1050D000323C02460B46312CF3D8264609E01046F6
:1050E000194619A3D3E90023FDF770F8083C0246DE
:1050F0000B46072CF3D806F0070408E010461946C3
:105100000022134BFDF762F8013C02460B46002CCF
:10511000F4D135B140464946FDF782F905E00D4B23
:10512000002240464946FDF751F802460B465046DC
:105130005946FDF74BF8FDF70BFBBDE8F88F00BFB4
:105140009A647EC50E1B514A0000000084D7974127
:10515000000024400000F03F0000F0BFAFF30080EB
:10516000014806F0CFBE00BFADDC000838B50748E7
:1051700006F0C8FE064D00242B19615905485A68EF
:105180000C3407F09BF8A82CF6D138BDDBDC000806
:10519000CCDB0008F1DC00082DE9F04106F09EFCB4
:1051A000274B4FF47A711A78264BB0FBF1F11B783C
:1051B000254807F083F800F0B9FF244B074619682B
:1051C000234B2448B1FBF3F107F078F8224E00247A
:1051D000012556F8241049B115FA04F33B4202D0D8
:1051E0001E4807F06BF80134E4B2F2E7012000F04A
:1051F00083FFA0B11A4C1B4B22781B4853F8221096
:1052000007F05CF82378022B09D1184B184893F863
:10521000ED1000290CBF6E216F2107F04FF81548E3
:1052200006F070FE144B1C8806F032FC0246134850
:1052300021464FF43C73BDE8F04107F03FB800BF92
:10524000141200204A040020F9DC00087805002030
:1052500040420F0037DD0008C8E8000855DD0008AF
:10526000D60C002074DC000859DD00087C0E0020FC
:1052700063DD000821DF00087C0B002067DD0008EB
:105280002DE9F0418046FDF793FF054638B91A4BEA
:105290001A485A791A4B013A53F8221028E040462E
:1052A00018492A46FDF7B4FF60B9174806F02AFEF0
:1052B000164C54F8041F19B1154806F0FFFFF8E723
:1052C000144805E0114F002657F8044F24B912483E
:1052D000BDE8F04106F016BE404621462A46FDF7DD
:1052E00097FF01360028EFD1034B0C485E71214631
:1052F000BDE8F04106F0E2BF7C0E002099DD000819
:1053000080DB000831E70008ADDD00087CDB000829
:1053100055DD000821DF0008C0DD0008D8DD0008E9
:1053200038B50D6804462846FDF742FF024620685E
:105330002946BDE83840FDF76BBF000008B50948B5
:1053400006F0E0FD0121002000F06AFE064806F0AC
:10535000D9FD0A2006F0D3FB0020BDE8084006F086
:1053600085BC00BFEADD0008F4DD0008F0B585B0BB
:105370000446FDF71DFF082826D120490023E25CE2
:1053800008688018407800F00300022808BF203A1F
:10539000E2540133082BF2D12646002516F8017B92
:1053A00017483946FDF748FE28B1304639460135E1
:1053B000FDF742FE18B1134806F0A4FD1BE0082DCE
:1053C000ECD1204600F086FD0F4806F09BFD0F4A09
:1053D0000B49002312F8010F04AC20185C5C013368
:1053E000082B00F80C4CF5D10023094801A98DF8D1
:1053F0000C3006F063FF05B0F0BD00BF04000020D4
:10540000ECF0000803DE000823DE0008790F00201E
:10541000F4DC00082DE9F8430546FDF7C9FE044613
:1054200000F0FAFF074684B92A4806F06BFD2A4DC2
:10543000012655F8041FC9B116FA04F33B4202D005
:10544000264806F03BFF0134F3E72846244922466C
:10545000FDF7DEFE60B9234806F054FD1E4C54F8FB
:10546000041F19B11D4806F029FFF8E71E4810E097
:105470002B782D2B04D10135013C4FF0010801E0C0
:105480004FF00008DFF85090002659F8047F27B944
:105490001648BDE8F84306F035BD28463946224691
:1054A000FDF7B6FE98B90120B040B8F1000F03D067
:1054B00000F0AAFF0E4802E000F048FE0D4806F09A
:1054C00021FD0D483946BDE8F84306F0F7BE013628
:1054D000DBE700BF38DE000840DB000855DD0008D0
:1054E00031E700084BDE000821DF000860DE00081D
:1054F0007ADE000884DE0008F4DC000810B50446FB
:10550000084806F0FFFC302200210748FDF728FD7F
:10551000064A00231360064A20461370BDE8104077
:10552000FFF70CBF8DDE0008A8070020D807002079
:105530005A0D002008B5084806F0E4FC012000F0F0
:105540000DFE064806F0DEFC0A2006F0D8FA002020
:10555000BDE8084006F08ABBA5DE0008F6DD0008BD
:1055600038B50F4C05462846FDF722FE10F0FF0F18
:1055700007D10B4B0B4893F8EC12BDE8384006F00E
:105580009DBE2846FDF74EFC022807D884F8EC02A1
:105590000020014600F044FD034DE4E738BD00BFA4
:1055A0007C0E0020C0DE000831E1000838B5054659
:1055B000FDF7FEFDC4B254B9104D2146104835F830
:1055C000022F013406F07AFE142CF6D138BD28469D
:1055D000FDF728FC132804460ADC20212846FDF7A5
:1055E0002BFDFDF71FFC074B1C3423F8140038BDBE
:1055F00005481421BDE8384006F060BE160E0020B4
:10560000D6DE0008E00D0020E2DE0008931E222B0B
:1056100088BF0A22031E10B50C4603DA2D2001F8BC
:10562000010B5842FFF7B8FC00230370204610BD61
:1056300030B587B005460C4603A800210C22FDF7C3
:105640008FFC28460021FDF79DFB20B12846294903
:10565000FDF7D4F803E028462649FDF7CDF82649A2
:10566000FDF7D4F9FDF798FB054685EAE570A0EB58
:10567000E5700A226946FFF7C9FF002D01DB2023F0
:1056800000E02D2368468DF80C30FDF791FD0128D0
:1056900007D130238DF80D308DF80E308DF80F3096
:1056A0000CE0022805D130238DF80D308DF80E3036
:1056B00004E0032802D130238DF80D30694603A899
:1056C000FDF798FC03A8FDF773FD0338C5B22A4621
:1056D00003A92046FDF7C4FD002363552046074972
:1056E000FDF788FC03AB20465919FDF783FC2046E3
:1056F00007B030BD6F12033A00007A4401DE0008A3
:1057000037B5037904460D46052B34D8DFE803F09E
:1057100003060A0D1114836819782DE0836893F944
:10572000001029E08368198826E08368B3F9001027
:1057300022E0836819681FE0836869461868FFF7EC
:1057400077FF0146114806F0B9FDF5B1E068FDF7B5
:1057500009F96946FFF76CFF01460D4806F0AEFDFA
:105760002069FDF7FFF86946FFF762FF0146084828
:1057700006F0A4FD09E00021064806F09FFD25B1D2
:105780000548E168226906F099FD3EBD60DD00082C
:105790005FDD00080CDF000808DF00082DE9F74F87
:1057A0008146FDF705FD064628B101281CD199F870
:1057B00000302A2B18D13F4806F0A4FB00253E4FAD
:1057C0002C464FF01408E9593C4806F077FD08FBD9
:1057D00004703146FFF794FF0134394806F092FB1C
:1057E0001435672CEFD162E048463D21FDF724FCDB
:1057F00000285CD0441C2046FDF714FB05462046DB
:10580000FFF7DEFB0027DFF8B0B080463E461423EA
:1058100057F80BA003FB06B450460193FDF7C8FCF4
:10582000514602464846FDF7F3FC019B002834D15F
:10583000E068FDF797F801464046FDF799FA002821
:1058400029D02069FDF78EF801464046FDF786FA1B
:10585000002820D02379052B08BF4546052B0FD8FB
:10586000DFE803F003030606090CA3681D7007E0D8
:10587000A3681D8004E0A3681D6001E0A3681D60AB
:105880005146104806F01AFD2046002103B0BDE83D
:10589000F04FFFF735BF0C4804E001361437672E90
:1058A000B6D10A4803B0BDE8F04F06F02BBB03B0F9
:1058B000BDE8F08F0FDF0008E0E80008EEDF000829
:1058C00021DF000824DF00082FDF000854DF000874
:1058D0002DE9F043594885B0594C06F0EFFC594882
:1058E000FFF764FE6279584B013A584853F822108A
:1058F00006F0E4FC20690021FDF71CFA002858D1CD
:105900000025266900213046FDF714FA00284CD105
:1059100001354F482946D4F81490D4F81880E76927
:1059200006F0CCFC30460021FDF70EFA10B14948D4
:1059300006F0C4FC69463046FFF77AFE0146464849
:1059400006F0BCFC48460021FDF7FEF910B14148C5
:1059500006F0B4FC69464846FFF76AFE01463E4839
:1059600006F0ACFC40460021FDF7EEF910B13948D5
:1059700006F0A4FC69464046FFF75AFE0146364849
:1059800006F09CFC38460021FDF7DEF910B13148E5
:1059900006F094FC69463846FFF74AFE01462F4858
:1059A00006F08CFC10340C2DABD12D48691C06F090
:1059B00085FC00F031FD2B4D07462E4656F8041F9E
:1059C00019B1294806F07AFCF8E70C46012655F88B
:1059D000041F41B116FA04F33B4202D0234806F0FB
:1059E0006DFC0134F3E7224B224A13F8010F04AC9B
:1059F00020188C5C0131082900F8104CF5D11E4CA0
:105A000000251E4869468DF80850274606F056FCCA
:105A100014260DE01A4854F8141C06F04FFC06FB3F
:105A200005700021FFF76CFE164806F06BFA013591
:105A30001434672DEED105B0BDE8F08371DF0008A6
:105A40007C0E002031E1000880DB0008A1DF0008A7
:105A5000ACDF0008FBE0000860DD0008F4DC0008B3
:105A6000B4DF000840DB0008C6DF0008D4DF000810
:105A7000790F0020ECF00008E0E80008E1DF000802
:105A8000EADF000821DF00082DE9F04389B0044671
:105A9000FDF78EFBC6B2002E6AD17A4806F032FAC4
:105AA000794C20690021FDF745F938BB013677486C
:105AB000314606F003FC206901A9FFF7B9FD014654
:105AC000734806F0FBFB606901A9FFF7B1FD0146D1
:105AD0006F4806F0F3FBA06901A9FFF7A9FD014695
